{
  "contractName": "LinkTRS",
  "abi": [
    {
      "constant": true,
      "inputs": [],
      "name": "contractCounter",
      "outputs": [
        {
          "name": "",
          "type": "uint256"
        }
      ],
      "payable": false,
      "stateMutability": "view",
      "type": "function",
      "signature": "0x067bd3b4"
    },
    {
      "constant": false,
      "inputs": [],
      "name": "renounceOwnership",
      "outputs": [],
      "payable": false,
      "stateMutability": "nonpayable",
      "type": "function",
      "signature": "0x715018a6"
    },
    {
      "constant": true,
      "inputs": [],
      "name": "owner",
      "outputs": [
        {
          "name": "",
          "type": "address"
        }
      ],
      "payable": false,
      "stateMutability": "view",
      "type": "function",
      "signature": "0x8da5cb5b"
    },
    {
      "constant": false,
      "inputs": [
        {
          "name": "_newOwner",
          "type": "address"
        }
      ],
      "name": "transferOwnership",
      "outputs": [],
      "payable": false,
      "stateMutability": "nonpayable",
      "type": "function",
      "signature": "0xf2fde38b"
    },
    {
      "inputs": [
        {
          "name": "tokenAddress",
          "type": "address"
        },
        {
          "name": "_aggregator",
          "type": "address"
        },
        {
          "name": "_link",
          "type": "address"
        }
      ],
      "payable": false,
      "stateMutability": "nonpayable",
      "type": "constructor",
      "signature": "constructor"
    },
    {
      "anonymous": false,
      "inputs": [
        {
          "indexed": false,
          "name": "contractID",
          "type": "bytes32"
        }
      ],
      "name": "ContractCreated",
      "type": "event",
      "signature": "0x60ea16e611deaec22d992e02267746362828fca13882a5d0dd11878eaa181230"
    },
    {
      "anonymous": false,
      "inputs": [
        {
          "indexed": false,
          "name": "_contractID",
          "type": "bytes32"
        }
      ],
      "name": "Liquidate",
      "type": "event",
      "signature": "0x49402ac80e80185fec1d9f8b8360275213386717f39afd886549219d1f0c17d3"
    },
    {
      "anonymous": false,
      "inputs": [
        {
          "indexed": false,
          "name": "_contractID",
          "type": "bytes32"
        },
        {
          "indexed": false,
          "name": "amount",
          "type": "uint256"
        }
      ],
      "name": "Deposit",
      "type": "event",
      "signature": "0x98e783c3864bbf744a057ef605a2a61701c3b62b5ed68b3745b99094497daf1f"
    },
    {
      "anonymous": false,
      "inputs": [
        {
          "indexed": false,
          "name": "contractID",
          "type": "bytes32"
        }
      ],
      "name": "npvUpdated",
      "type": "event",
      "signature": "0xec33bc48af09208757bd088a445eacce3755e505c2ac739e05e6d0085ec08788"
    },
    {
      "anonymous": false,
      "inputs": [
        {
          "indexed": false,
          "name": "priceChange",
          "type": "int256"
        }
      ],
      "name": "priceChangeEvent",
      "type": "event",
      "signature": "0x73a90aec9019337cd7696c0b2ca3ce431ea2fe8526cbfbdf27ac2f66e868079c"
    },
    {
      "anonymous": false,
      "inputs": [
        {
          "indexed": false,
          "name": "from",
          "type": "address"
        },
        {
          "indexed": false,
          "name": "to",
          "type": "address"
        },
        {
          "indexed": false,
          "name": "value",
          "type": "uint256"
        }
      ],
      "name": "AttemptTransfer",
      "type": "event",
      "signature": "0xd80ebeb49a88fadb5ef8b540253fcf5b9f5ad633df71d5b79ad390afdbb1385f"
    },
    {
      "anonymous": false,
      "inputs": [
        {
          "indexed": false,
          "name": "interest",
          "type": "uint256"
        },
        {
          "indexed": false,
          "name": "priceDiff",
          "type": "uint256"
        }
      ],
      "name": "TestEmit",
      "type": "event",
      "signature": "0x3298b473c897701863a72ac6e7b3520d45529fdea2174f3294fe9d1016a8240f"
    },
    {
      "anonymous": false,
      "inputs": [
        {
          "indexed": false,
          "name": "tokens",
          "type": "uint256"
        }
      ],
      "name": "amountToPay",
      "type": "event",
      "signature": "0x12c5aba7cebed6f3965f3f1ea88b8b52d852c9f90c49cb13e9edebcc88453cea"
    },
    {
      "anonymous": false,
      "inputs": [
        {
          "indexed": true,
          "name": "id",
          "type": "bytes32"
        }
      ],
      "name": "ChainlinkRequested",
      "type": "event",
      "signature": "0xb5e6e01e79f91267dc17b4e6314d5d4d03593d2ceee0fbb452b750bd70ea5af9"
    },
    {
      "anonymous": false,
      "inputs": [
        {
          "indexed": true,
          "name": "id",
          "type": "bytes32"
        }
      ],
      "name": "ChainlinkFulfilled",
      "type": "event",
      "signature": "0x7cc135e0cebb02c3480ae5d74d377283180a2601f8f644edf7987b009316c63a"
    },
    {
      "anonymous": false,
      "inputs": [
        {
          "indexed": true,
          "name": "id",
          "type": "bytes32"
        }
      ],
      "name": "ChainlinkCancelled",
      "type": "event",
      "signature": "0xe1fe3afa0f7f761ff0a8b89086790efd5140d2907ebd5b7ff6bfcb5e075fd4c5"
    },
    {
      "anonymous": false,
      "inputs": [
        {
          "indexed": true,
          "name": "previousOwner",
          "type": "address"
        }
      ],
      "name": "OwnershipRenounced",
      "type": "event",
      "signature": "0xf8df31144d9c2f0f6b59d69b8b98abd5459d07f2742c4df920b25aae33c64820"
    },
    {
      "anonymous": false,
      "inputs": [
        {
          "indexed": true,
          "name": "previousOwner",
          "type": "address"
        },
        {
          "indexed": true,
          "name": "newOwner",
          "type": "address"
        }
      ],
      "name": "OwnershipTransferred",
      "type": "event",
      "signature": "0x8be0079c531659141344cd1fd0a4f28419497f9722a3daafe3b4186f6b6457e0"
    },
    {
      "constant": false,
      "inputs": [
        {
          "name": "_contractID",
          "type": "bytes32"
        },
        {
          "name": "_jobId",
          "type": "bytes32"
        }
      ],
      "name": "requestEthereumPrice",
      "outputs": [
        {
          "name": "requestId",
          "type": "bytes32"
        }
      ],
      "payable": false,
      "stateMutability": "nonpayable",
      "type": "function",
      "signature": "0x17984e54"
    },
    {
      "constant": false,
      "inputs": [
        {
          "name": "_requestId",
          "type": "bytes32"
        },
        {
          "name": "_price",
          "type": "uint256"
        }
      ],
      "name": "fulfillEthereumPrice",
      "outputs": [],
      "payable": false,
      "stateMutability": "nonpayable",
      "type": "function",
      "signature": "0x92cdaaf3"
    },
    {
      "constant": true,
      "inputs": [],
      "name": "getLatestPrice",
      "outputs": [
        {
          "name": "",
          "type": "uint256"
        }
      ],
      "payable": false,
      "stateMutability": "view",
      "type": "function",
      "signature": "0x8e15f473"
    },
    {
      "constant": true,
      "inputs": [],
      "name": "getLatestUpdateHeight",
      "outputs": [
        {
          "name": "",
          "type": "uint256"
        }
      ],
      "payable": false,
      "stateMutability": "view",
      "type": "function",
      "signature": "0x9993d669"
    },
    {
      "constant": false,
      "inputs": [
        {
          "name": "from",
          "type": "address"
        },
        {
          "name": "amount",
          "type": "uint256"
        },
        {
          "name": "data",
          "type": "bytes"
        }
      ],
      "name": "onTokenTransfer",
      "outputs": [
        {
          "name": "success",
          "type": "bool"
        }
      ],
      "payable": false,
      "stateMutability": "nonpayable",
      "type": "function",
      "signature": "0xa4c0ed36"
    },
    {
      "constant": false,
      "inputs": [
        {
          "name": "timeToLive",
          "type": "uint256"
        },
        {
          "name": "length",
          "type": "uint256"
        },
        {
          "name": "interest",
          "type": "uint16"
        },
        {
          "name": "requiredMargin",
          "type": "uint16"
        },
        {
          "name": "amountOfLink",
          "type": "uint256"
        }
      ],
      "name": "createContract",
      "outputs": [
        {
          "name": "",
          "type": "bytes32"
        }
      ],
      "payable": false,
      "stateMutability": "nonpayable",
      "type": "function",
      "signature": "0xde4a21ba"
    },
    {
      "constant": false,
      "inputs": [
        {
          "name": "_contractID",
          "type": "bytes32"
        },
        {
          "name": "tokensToDeposit",
          "type": "uint256"
        }
      ],
      "name": "joinContract",
      "outputs": [
        {
          "name": "",
          "type": "bool"
        }
      ],
      "payable": false,
      "stateMutability": "nonpayable",
      "type": "function",
      "signature": "0x48268381"
    },
    {
      "constant": true,
      "inputs": [
        {
          "name": "i",
          "type": "uint256"
        }
      ],
      "name": "getUserContract",
      "outputs": [
        {
          "name": "",
          "type": "bytes32"
        }
      ],
      "payable": false,
      "stateMutability": "view",
      "type": "function",
      "signature": "0x193fc8e6"
    },
    {
      "constant": true,
      "inputs": [
        {
          "name": "index",
          "type": "uint256"
        }
      ],
      "name": "getContractByIndex",
      "outputs": [
        {
          "name": "",
          "type": "address"
        },
        {
          "name": "",
          "type": "address"
        },
        {
          "name": "",
          "type": "uint256"
        },
        {
          "name": "",
          "type": "uint256"
        },
        {
          "name": "",
          "type": "uint256"
        },
        {
          "name": "",
          "type": "uint16"
        },
        {
          "name": "",
          "type": "uint256"
        },
        {
          "name": "",
          "type": "uint256"
        },
        {
          "name": "",
          "type": "uint256"
        },
        {
          "name": "",
          "type": "uint256"
        },
        {
          "name": "",
          "type": "uint256"
        }
      ],
      "payable": false,
      "stateMutability": "view",
      "type": "function",
      "signature": "0x0264a101"
    },
    {
      "constant": true,
      "inputs": [
        {
          "name": "_contractID",
          "type": "bytes32"
        }
      ],
      "name": "getContractInfo",
      "outputs": [
        {
          "name": "",
          "type": "address"
        },
        {
          "name": "",
          "type": "address"
        },
        {
          "name": "",
          "type": "uint256"
        },
        {
          "name": "",
          "type": "uint256"
        },
        {
          "name": "",
          "type": "uint256"
        },
        {
          "name": "",
          "type": "uint16"
        },
        {
          "name": "",
          "type": "uint256"
        },
        {
          "name": "",
          "type": "uint256"
        },
        {
          "name": "",
          "type": "uint256"
        },
        {
          "name": "",
          "type": "uint256"
        },
        {
          "name": "",
          "type": "uint256"
        }
      ],
      "payable": false,
      "stateMutability": "view",
      "type": "function",
      "signature": "0x613e2de2"
    },
    {
      "constant": true,
      "inputs": [
        {
          "name": "_contractID",
          "type": "bytes32"
        },
        {
          "name": "i",
          "type": "uint256"
        }
      ],
      "name": "getContractNPV",
      "outputs": [
        {
          "name": "",
          "type": "uint256"
        },
        {
          "name": "",
          "type": "uint256"
        },
        {
          "name": "",
          "type": "uint256"
        },
        {
          "name": "",
          "type": "uint256"
        },
        {
          "name": "",
          "type": "uint256"
        }
      ],
      "payable": false,
      "stateMutability": "view",
      "type": "function",
      "signature": "0x53d1b190"
    },
    {
      "constant": false,
      "inputs": [
        {
          "name": "_contractId",
          "type": "bytes32"
        },
        {
          "name": "price",
          "type": "uint256"
        }
      ],
      "name": "remargin",
      "outputs": [
        {
          "name": "",
          "type": "bool"
        }
      ],
      "payable": false,
      "stateMutability": "nonpayable",
      "type": "function",
      "signature": "0x935f8c04"
    },
    {
      "constant": false,
      "inputs": [
        {
          "name": "_contractID",
          "type": "bytes32"
        }
      ],
      "name": "requestRemargin",
      "outputs": [
        {
          "name": "",
          "type": "bool"
        }
      ],
      "payable": false,
      "stateMutability": "nonpayable",
      "type": "function",
      "signature": "0xca3b81fb"
    },
    {
      "constant": false,
      "inputs": [
        {
          "name": "_contractId",
          "type": "bytes32"
        }
      ],
      "name": "liquidate",
      "outputs": [],
      "payable": false,
      "stateMutability": "nonpayable",
      "type": "function",
      "signature": "0x0a71096e"
    },
    {
      "constant": false,
      "inputs": [
        {
          "name": "num",
          "type": "int256"
        }
      ],
      "name": "abs",
      "outputs": [
        {
          "name": "",
          "type": "uint256"
        }
      ],
      "payable": false,
      "stateMutability": "nonpayable",
      "type": "function",
      "signature": "0x1b5ac4b5"
    },
    {
      "constant": false,
      "inputs": [
        {
          "name": "value",
          "type": "uint256"
        },
        {
          "name": "_contractID",
          "type": "bytes32"
        }
      ],
      "name": "deposit",
      "outputs": [
        {
          "name": "",
          "type": "bool"
        }
      ],
      "payable": false,
      "stateMutability": "nonpayable",
      "type": "function",
      "signature": "0xc9630cb0"
    },
    {
      "constant": false,
      "inputs": [
        {
          "name": "value",
          "type": "uint256"
        },
        {
          "name": "_contractID",
          "type": "bytes32"
        }
      ],
      "name": "withdraw",
      "outputs": [
        {
          "name": "",
          "type": "bool"
        }
      ],
      "payable": false,
      "stateMutability": "nonpayable",
      "type": "function",
      "signature": "0xa8d2021a"
    },
    {
      "constant": false,
      "inputs": [
        {
          "name": "_user",
          "type": "address"
        }
      ],
      "name": "getUserDetails",
      "outputs": [
        {
          "name": "",
          "type": "uint256"
        },
        {
          "name": "",
          "type": "uint256"
        }
      ],
      "payable": false,
      "stateMutability": "nonpayable",
      "type": "function",
      "signature": "0xcc3d967b"
    }
  ],
  "bytecode": "0x608060405260016005553480156200001657600080fd5b50604051606080620046e4833981018060405281019080805190602001909291908051906020019092919080519060200190929190505050336000806101000a81548173ffffffffffffffffffffffffffffffffffffffff021916908373ffffffffffffffffffffffffffffffffffffffff16021790555081600760006101000a81548173ffffffffffffffffffffffffffffffffffffffff021916908373ffffffffffffffffffffffffffffffffffffffff16021790555082600d60006101000a81548173ffffffffffffffffffffffffffffffffffffffff021916908373ffffffffffffffffffffffffffffffffffffffff160217905550600073ffffffffffffffffffffffffffffffffffffffff168173ffffffffffffffffffffffffffffffffffffffff16141562000165576200015f62000189640100000000026401000000009004565b62000180565b6200017f816200025a640100000000026401000000009004565b5b5050506200029e565b6200025873c89bd4e1632d3a43cb03aaad5262cbe4038bc57173ffffffffffffffffffffffffffffffffffffffff166338cc48316040518163ffffffff167c0100000000000000000000000000000000000000000000000000000000028152600401602060405180830381600087803b1580156200020657600080fd5b505af11580156200021b573d6000803e3d6000fd5b505050506040513d60208110156200023257600080fd5b81019080805190602001909291905050506200025a640100000000026401000000009004565b565b80600360006101000a81548173ffffffffffffffffffffffffffffffffffffffff021916908373ffffffffffffffffffffffffffffffffffffffff16021790555050565b61443680620002ae6000396000f300608060405260043610610128576000357c0100000000000000000000000000000000000000000000000000000000900463ffffffff1680630264a1011461012d578063067bd3b4146102145780630a71096e1461023f57806317984e5414610270578063193fc8e6146102cb5780631b5ac4b514610314578063482683811461035557806353d1b190146103a8578063613e2de214610413578063715018a6146104fe5780638da5cb5b146105155780638e15f4731461056c57806392cdaaf314610597578063935f8c04146105d25780639993d66914610625578063a4c0ed3614610650578063a8d2021a146106fb578063c9630cb01461074e578063ca3b81fb146107a1578063cc3d967b146107ea578063de4a21ba14610848578063f2fde38b146108c1575b600080fd5b34801561013957600080fd5b5061015860048036038101908080359060200190929190505050610904565b604051808c73ffffffffffffffffffffffffffffffffffffffff1673ffffffffffffffffffffffffffffffffffffffff1681526020018b73ffffffffffffffffffffffffffffffffffffffff1673ffffffffffffffffffffffffffffffffffffffff1681526020018a81526020018981526020018881526020018761ffff1661ffff1681526020018681526020018581526020018481526020018381526020018281526020019b50505050505050505050505060405180910390f35b34801561022057600080fd5b50610229610958565b6040518082815260200191505060405180910390f35b34801561024b57600080fd5b5061026e600480360381019080803560001916906020019092919050505061095e565b005b34801561027c57600080fd5b506102ad600480360381019080803560001916906020019092919080356000191690602001909291905050506109a0565b60405180826000191660001916815260200191505060405180910390f35b3480156102d757600080fd5b506102f660048036038101908080359060200190929190505050610b6b565b60405180826000191660001916815260200191505060405180910390f35b34801561032057600080fd5b5061033f60048036038101908080359060200190929190505050610bce565b6040518082815260200191505060405180910390f35b34801561036157600080fd5b5061038e600480360381019080803560001916906020019092919080359060200190929190505050610bec565b604051808215151515815260200191505060405180910390f35b3480156103b457600080fd5b506103e1600480360381019080803560001916906020019092919080359060200190929190505050610f82565b604051808681526020018581526020018481526020018381526020018281526020019550505050505060405180910390f35b34801561041f57600080fd5b506104426004803603810190808035600019169060200190929190505050611039565b604051808c73ffffffffffffffffffffffffffffffffffffffff1673ffffffffffffffffffffffffffffffffffffffff1681526020018b73ffffffffffffffffffffffffffffffffffffffff1673ffffffffffffffffffffffffffffffffffffffff1681526020018a81526020018981526020018881526020018761ffff1661ffff1681526020018681526020018581526020018481526020018381526020018281526020019b50505050505050505050505060405180910390f35b34801561050a57600080fd5b50610513611380565b005b34801561052157600080fd5b5061052a611482565b604051808273ffffffffffffffffffffffffffffffffffffffff1673ffffffffffffffffffffffffffffffffffffffff16815260200191505060405180910390f35b34801561057857600080fd5b506105816114a7565b6040518082815260200191505060405180910390f35b3480156105a357600080fd5b506105d0600480360381019080803560001916906020019092919080359060200190929190505050611577565b005b3480156105de57600080fd5b5061060b6004803603810190808035600019169060200190929190803590602001909291905050506117b9565b604051808215151515815260200191505060405180910390f35b34801561063157600080fd5b5061063a611893565b6040518082815260200191505060405180910390f35b34801561065c57600080fd5b506106e1600480360381019080803573ffffffffffffffffffffffffffffffffffffffff16906020019092919080359060200190929190803590602001908201803590602001908080601f016020809104026020016040519081016040528093929190818152602001838380828437820191505050505050919291929050505061195b565b604051808215151515815260200191505060405180910390f35b34801561070757600080fd5b506107346004803603810190808035906020019092919080356000191690602001909291905050506119b4565b604051808215151515815260200191505060405180910390f35b34801561075a57600080fd5b506107876004803603810190808035906020019092919080356000191690602001909291905050506122de565b604051808215151515815260200191505060405180910390f35b3480156107ad57600080fd5b506107d060048036038101908080356000191690602001909291905050506129a8565b604051808215151515815260200191505060405180910390f35b3480156107f657600080fd5b5061082b600480360381019080803573ffffffffffffffffffffffffffffffffffffffff1690602001909291905050506129da565b604051808381526020018281526020019250505060405180910390f35b34801561085457600080fd5b506108a36004803603810190808035906020019092919080359060200190929190803561ffff169060200190929190803561ffff16906020019092919080359060200190929190505050612a34565b60405180826000191660001916815260200191505060405180910390f35b3480156108cd57600080fd5b50610902600480360381019080803573ffffffffffffffffffffffffffffffffffffffff169060200190929190505050612f58565b005b60008060008060008060008060008060006109338c604051808281526020019150506040518091039020611039565b9a509a509a509a509a509a509a509a509a509a509a5091939597999b90929496989a50565b600c5481565b7f49402ac80e80185fec1d9f8b8360275213386717f39afd886549219d1f0c17d38160405180826000191660001916815260200191505060405180910390a150565b60006109aa61428b565b6109d883306392cdaaf37c010000000000000000000000000000000000000000000000000000000002612fbf565b9050610a806040805190810160405280600381526020017f6765740000000000000000000000000000000000000000000000000000000000815250606060405190810160405280604081526020017f68747470733a2f2f6d696e2d6170692e63727970746f636f6d706172652e636f81526020017f6d2f646174612f70726963653f6673796d3d4c494e4b267473796d733d44414981525083612ff09092919063ffffffff16565b610aff6040805190810160405280600481526020017f70617468000000000000000000000000000000000000000000000000000000008152506040805190810160405280600381526020017f444149000000000000000000000000000000000000000000000000000000000081525083612ff09092919063ffffffff16565b610b4d6040805190810160405280600581526020017f74696d65730000000000000000000000000000000000000000000000000000008152506305f5e100836130239092919063ffffffff16565b610b6281670de0b6b3a7640000600102613056565b91505092915050565b6000600860003373ffffffffffffffffffffffffffffffffffffffff1673ffffffffffffffffffffffffffffffffffffffff16815260200190815260200160002060010182815481101515610bbc57fe5b90600052602060002001549050919050565b600080821215610be357816000039050610be7565b8190505b919050565b6000600a6000846000191660001916815260200190815260200160002060009054906101000a900460ff161515610c8b576040517f08c379a000000000000000000000000000000000000000000000000000000000815260040180806020018281038252601e8152602001807f506c656173652075736520612076616c696420636f6e7472616374204944000081525060200191505060405180910390fd5b600960008460001916600019168152602001908152602001600020600b01544211151515610d47576040517f08c379a000000000000000000000000000000000000000000000000000000000815260040180806020018281038252602b8152602001807f596f752063616e206f6e6c792061636365707420612063757272656e746c792081526020017f76616c6964206f6666657200000000000000000000000000000000000000000081525060400191505060405180910390fd5b81600d60009054906101000a900473ffffffffffffffffffffffffffffffffffffffff1673ffffffffffffffffffffffffffffffffffffffff1663dd62ed3e33306040518363ffffffff167c0100000000000000000000000000000000000000000000000000000000028152600401808373ffffffffffffffffffffffffffffffffffffffff1673ffffffffffffffffffffffffffffffffffffffff1681526020018273ffffffffffffffffffffffffffffffffffffffff1673ffffffffffffffffffffffffffffffffffffffff16815260200192505050602060405180830381600087803b158015610e3957600080fd5b505af1158015610e4d573d6000803e3d6000fd5b505050506040513d6020811015610e6357600080fd5b810190808051906020019092919050505010151515610f10576040517f08c379a000000000000000000000000000000000000000000000000000000000815260040180806020018281038252602d8152602001807f596f752068617665206e6f742070726f76696465642061636365737320746f2081526020017f656e6f75676820746f6b656e730000000000000000000000000000000000000081525060400191505060405180910390fd5b3360096000856000191660001916815260200190815260200160002060010160006101000a81548173ffffffffffffffffffffffffffffffffffffffff021916908373ffffffffffffffffffffffffffffffffffffffff160217905550610f7782846122de565b506001905092915050565b6000806000806000610f926142f9565b600960008960001916600019168152602001908152602001600020600c0187815481101515610fbd57fe5b906000526020600020906005020160a060405190810160405290816000820154815260200160018201548152602001600282015481526020016003820154815260200160048201548152505090508060000151816020015182604001518360600151846080015195509550955095509550509295509295909350565b6000806000806000806000806000806000611052614329565b600a60008e6000191660001916815260200190815260200160002060009054906101000a900460ff1615156110ef576040517f08c379a000000000000000000000000000000000000000000000000000000000815260040180806020018281038252601e8152602001807f506c656173652075736520612076616c696420636f6e7472616374204944000081525060200191505060405180910390fd5b600960008e600019166000191681526020019081526020016000206101c060405190810160405290816000820154600019166000191681526020016001820160009054906101000a900473ffffffffffffffffffffffffffffffffffffffff1673ffffffffffffffffffffffffffffffffffffffff1673ffffffffffffffffffffffffffffffffffffffff1681526020016002820160009054906101000a900473ffffffffffffffffffffffffffffffffffffffff1673ffffffffffffffffffffffffffffffffffffffff1673ffffffffffffffffffffffffffffffffffffffff1681526020016003820154815260200160048201548152602001600582015481526020016006820160009054906101000a900461ffff1661ffff1661ffff1681526020016006820160029054906101000a900461ffff1661ffff1661ffff168152602001600782015481526020016008820154815260200160098201548152602001600a820160009054906101000a900463ffffffff1663ffffffff1663ffffffff168152602001600b8201548152602001600c8201805480602002602001604051908101604052809291908181526020016000905b8282101561130b578382906000526020600020906005020160a0604051908101604052908160008201548152602001600182015481526020016002820154815260200160038201548152602001600482015481525050815260200190600101906112a6565b505050508152505090508060200151816040015182606001518360a0015184608001518560c001518661010001518761012001518861014001518961018001518a61016001518063ffffffff1690509b509b509b509b509b509b509b509b509b509b509b505091939597999b90929496989a50565b6000809054906101000a900473ffffffffffffffffffffffffffffffffffffffff1673ffffffffffffffffffffffffffffffffffffffff163373ffffffffffffffffffffffffffffffffffffffff161415156113db57600080fd5b6000809054906101000a900473ffffffffffffffffffffffffffffffffffffffff1673ffffffffffffffffffffffffffffffffffffffff167ff8df31144d9c2f0f6b59d69b8b98abd5459d07f2742c4df920b25aae33c6482060405160405180910390a260008060006101000a81548173ffffffffffffffffffffffffffffffffffffffff021916908373ffffffffffffffffffffffffffffffffffffffff160217905550565b6000809054906101000a900473ffffffffffffffffffffffffffffffffffffffff1681565b6000611572600760009054906101000a900473ffffffffffffffffffffffffffffffffffffffff1673ffffffffffffffffffffffffffffffffffffffff16637e1b4cb06040518163ffffffff167c0100000000000000000000000000000000000000000000000000000000028152600401602060405180830381600087803b15801561153257600080fd5b505af1158015611546573d6000803e3d6000fd5b505050506040513d602081101561155c57600080fd5b8101908080519060200190929190505050610bce565b905090565b60008260066000826000191660001916815260200190815260200160002060009054906101000a900473ffffffffffffffffffffffffffffffffffffffff1673ffffffffffffffffffffffffffffffffffffffff163373ffffffffffffffffffffffffffffffffffffffff1614151561167e576040517f08c379a00000000000000000000000000000000000000000000000000000000081526004018080602001828103825260288152602001807f536f75726365206d75737420626520746865206f7261636c65206f662074686581526020017f207265717565737400000000000000000000000000000000000000000000000081525060400191505060405180910390fd5b60066000826000191660001916815260200190815260200160002060006101000a81549073ffffffffffffffffffffffffffffffffffffffff021916905580600019167f7cc135e0cebb02c3480ae5d74d377283180a2601f8f644edf7987b009316c63a60405160405180910390a2600b60008560001916600019168152602001908152602001600020549150600a6000836000191660001916815260200190815260200160002060009054906101000a900460ff1615156117a8576040517f08c379a000000000000000000000000000000000000000000000000000000000815260040180806020018281038252600f8152602001807f496e76616c69642072657175657374000000000000000000000000000000000081525060200191505060405180910390fd5b6117b282846117b9565b5050505050565b6000600a6000846000191660001916815260200190815260200160002060009054906101000a900460ff16151561187e576040517f08c379a00000000000000000000000000000000000000000000000000000000081526004018080602001828103825260268152602001807f596f752063616e206f6e6c792072656d617267696e20612076616c696420636f81526020017f6e7472616374000000000000000000000000000000000000000000000000000081525060400191505060405180910390fd5b611888838361308d565b506001905092915050565b6000600760009054906101000a900473ffffffffffffffffffffffffffffffffffffffff1673ffffffffffffffffffffffffffffffffffffffff1663f9f3e0356040518163ffffffff167c0100000000000000000000000000000000000000000000000000000000028152600401602060405180830381600087803b15801561191b57600080fd5b505af115801561192f573d6000803e3d6000fd5b505050506040513d602081101561194557600080fd5b8101908080519060200190929190505050905090565b600082600860008673ffffffffffffffffffffffffffffffffffffffff1673ffffffffffffffffffffffffffffffffffffffff168152602001908152602001600020600301600082825401925050819055509392505050565b60006119be614329565b600a6000846000191660001916815260200190815260200160002060009054906101000a900460ff161515611a5b576040517f08c379a000000000000000000000000000000000000000000000000000000000815260040180806020018281038252601e8152602001807f506c656173652075736520612076616c696420636f6e7472616374204944000081525060200191505060405180910390fd5b6009600084600019166000191681526020019081526020016000206101c060405190810160405290816000820154600019166000191681526020016001820160009054906101000a900473ffffffffffffffffffffffffffffffffffffffff1673ffffffffffffffffffffffffffffffffffffffff1673ffffffffffffffffffffffffffffffffffffffff1681526020016002820160009054906101000a900473ffffffffffffffffffffffffffffffffffffffff1673ffffffffffffffffffffffffffffffffffffffff1673ffffffffffffffffffffffffffffffffffffffff1681526020016003820154815260200160048201548152602001600582015481526020016006820160009054906101000a900461ffff1661ffff1661ffff1681526020016006820160029054906101000a900461ffff1661ffff1661ffff168152602001600782015481526020016008820154815260200160098201548152602001600a820160009054906101000a900463ffffffff1663ffffffff1663ffffffff168152602001600b8201548152602001600c8201805480602002602001604051908101604052809291908181526020016000905b82821015611c77578382906000526020600020906005020160a060405190810160405290816000820154815260200160018201548152602001600282015481526020016003820154815260200160048201548152505081526020019060010190611c12565b50505050815250509050806020015173ffffffffffffffffffffffffffffffffffffffff163373ffffffffffffffffffffffffffffffffffffffff161415611fca57836009600085600019166000191681526020019081526020016000206008015410151515611d75576040517f08c379a00000000000000000000000000000000000000000000000000000000081526004018080602001828103825260328152602001807f596f752063616e206f6e6c7920776974686472617720616e20616d6f756e742081526020017f796f752068617665206465706f7369746564000000000000000000000000000081525060400191505060405180910390fd5b600d60009054906101000a900473ffffffffffffffffffffffffffffffffffffffff1673ffffffffffffffffffffffffffffffffffffffff1663a9059cbb33866040518363ffffffff167c0100000000000000000000000000000000000000000000000000000000028152600401808373ffffffffffffffffffffffffffffffffffffffff1673ffffffffffffffffffffffffffffffffffffffff16815260200182815260200192505050602060405180830381600087803b158015611e3a57600080fd5b505af1158015611e4e573d6000803e3d6000fd5b505050506040513d6020811015611e6457600080fd5b81019080805190602001909291905050501515611ee9576040517f08c379a000000000000000000000000000000000000000000000000000000000815260040180806020018281038252601b8152602001807f546f6b656e207472616e73666572206d7573742073756363656564000000000081525060200191505060405180910390fd5b611f35600860003373ffffffffffffffffffffffffffffffffffffffff1673ffffffffffffffffffffffffffffffffffffffff1681526020019081526020016000206003015485613660565b600860003373ffffffffffffffffffffffffffffffffffffffff1673ffffffffffffffffffffffffffffffffffffffff16815260200190815260200160002060030181905550611fa36009600085600019166000191681526020019081526020016000206008015485613660565b600960008560001916600019168152602001908152602001600020600801819055506122d7565b836009600085600019166000191681526020019081526020016000206009015410151515612086576040517f08c379a00000000000000000000000000000000000000000000000000000000081526004018080602001828103825260328152602001807f596f752063616e206f6e6c7920776974686472617720616e20616d6f756e742081526020017f796f752068617665206465706f7369746564000000000000000000000000000081525060400191505060405180910390fd5b600d60009054906101000a900473ffffffffffffffffffffffffffffffffffffffff1673ffffffffffffffffffffffffffffffffffffffff1663a9059cbb33866040518363ffffffff167c0100000000000000000000000000000000000000000000000000000000028152600401808373ffffffffffffffffffffffffffffffffffffffff1673ffffffffffffffffffffffffffffffffffffffff16815260200182815260200192505050602060405180830381600087803b15801561214b57600080fd5b505af115801561215f573d6000803e3d6000fd5b505050506040513d602081101561217557600080fd5b810190808051906020019092919050505015156121fa576040517f08c379a000000000000000000000000000000000000000000000000000000000815260040180806020018281038252601b8152602001807f546f6b656e207472616e73666572206d7573742073756363656564000000000081525060200191505060405180910390fd5b612246600860003373ffffffffffffffffffffffffffffffffffffffff1673ffffffffffffffffffffffffffffffffffffffff1681526020019081526020016000206003015485613660565b600860003373ffffffffffffffffffffffffffffffffffffffff1673ffffffffffffffffffffffffffffffffffffffff168152602001908152602001600020600301819055506122b46009600085600019166000191681526020019081526020016000206009015485613660565b600960008560001916600019168152602001908152602001600020600901819055505b5092915050565b60006122e8614329565b600a6000846000191660001916815260200190815260200160002060009054906101000a900460ff161515612385576040517f08c379a000000000000000000000000000000000000000000000000000000000815260040180806020018281038252601e8152602001807f506c656173652075736520612076616c696420636f6e7472616374204944000081525060200191505060405180910390fd5b7fd80ebeb49a88fadb5ef8b540253fcf5b9f5ad633df71d5b79ad390afdbb1385f333086604051808473ffffffffffffffffffffffffffffffffffffffff1673ffffffffffffffffffffffffffffffffffffffff1681526020018373ffffffffffffffffffffffffffffffffffffffff1673ffffffffffffffffffffffffffffffffffffffff168152602001828152602001935050505060405180910390a1600d60009054906101000a900473ffffffffffffffffffffffffffffffffffffffff1673ffffffffffffffffffffffffffffffffffffffff166323b872dd3330876040518463ffffffff167c0100000000000000000000000000000000000000000000000000000000028152600401808473ffffffffffffffffffffffffffffffffffffffff1673ffffffffffffffffffffffffffffffffffffffff1681526020018373ffffffffffffffffffffffffffffffffffffffff1673ffffffffffffffffffffffffffffffffffffffff1681526020018281526020019350505050602060405180830381600087803b15801561251d57600080fd5b505af1158015612531573d6000803e3d6000fd5b505050506040513d602081101561254757600080fd5b810190808051906020019092919050505015156125cc576040517f08c379a000000000000000000000000000000000000000000000000000000000815260040180806020018281038252601b8152602001807f546f6b656e207472616e73666572206d7573742073756363656564000000000081525060200191505060405180910390fd5b6009600084600019166000191681526020019081526020016000206101c060405190810160405290816000820154600019166000191681526020016001820160009054906101000a900473ffffffffffffffffffffffffffffffffffffffff1673ffffffffffffffffffffffffffffffffffffffff1673ffffffffffffffffffffffffffffffffffffffff1681526020016002820160009054906101000a900473ffffffffffffffffffffffffffffffffffffffff1673ffffffffffffffffffffffffffffffffffffffff1673ffffffffffffffffffffffffffffffffffffffff1681526020016003820154815260200160048201548152602001600582015481526020016006820160009054906101000a900461ffff1661ffff1661ffff1681526020016006820160029054906101000a900461ffff1661ffff1661ffff168152602001600782015481526020016008820154815260200160098201548152602001600a820160009054906101000a900463ffffffff1663ffffffff1663ffffffff168152602001600b8201548152602001600c8201805480602002602001604051908101604052809291908181526020016000905b828210156127e8578382906000526020600020906005020160a060405190810160405290816000820154815260200160018201548152602001600282015481526020016003820154815260200160048201548152505081526020019060010190612783565b50505050815250509050806020015173ffffffffffffffffffffffffffffffffffffffff163373ffffffffffffffffffffffffffffffffffffffff161415612879576128526009600085600019166000191681526020019081526020016000206008015485613679565b600960008560001916600019168152602001908152602001600020600801819055506128c4565b6128a16009600085600019166000191681526020019081526020016000206009015485613679565b600960008560001916600019168152602001908152602001600020600901819055505b612910600860003373ffffffffffffffffffffffffffffffffffffffff1673ffffffffffffffffffffffffffffffffffffffff1681526020019081526020016000206003015485613679565b600860003373ffffffffffffffffffffffffffffffffffffffff1673ffffffffffffffffffffffffffffffffffffffff168152602001908152602001600020600301819055507f98e783c3864bbf744a057ef605a2a61701c3b62b5ed68b3745b99094497daf1f83856040518083600019166000191681526020018281526020019250505060405180910390a1600191505092915050565b60006129d4827f65306663353864633833396134323830386333633531313836663666383338316109a0565b50919050565b6000806000600860008573ffffffffffffffffffffffffffffffffffffffff1673ffffffffffffffffffffffffffffffffffffffff1681526020019081526020016000209050806002015481600301549250925050915091565b600080600080600080612a456142f9565b6000612a4f6114a7565b9650600c546040518082815260200191505060405180910390209550620151808c0242019450603c8d0242019350612a878988613695565b925060a060405190810160405280428152602001888152602001600081526020016000815260200160008152509150856009600088600019166000191681526020019081526020016000206000018160001916905550600060096000886000191660001916815260200190815260200160002060010160006101000a81548173ffffffffffffffffffffffffffffffffffffffff021916908373ffffffffffffffffffffffffffffffffffffffff1602179055503360096000886000191660001916815260200190815260200160002060020160006101000a81548173ffffffffffffffffffffffffffffffffffffffff021916908373ffffffffffffffffffffffffffffffffffffffff1602179055508660096000886000191660001916815260200190815260200160002060030181905550846009600088600019166000191681526020019081526020016000206004018190555042600960008860001916600019168152602001908152602001600020600501819055508a60096000886000191660001916815260200190815260200160002060060160006101000a81548161ffff021916908361ffff1602179055508960096000886000191660001916815260200190815260200160002060060160026101000a81548161ffff021916908361ffff16021790555060006009600088600019166000191681526020019081526020016000206008018190555060006009600088600019166000191681526020019081526020016000206009018190555082600960008860001916600019168152602001908152602001600020600701819055506001600960008860001916600019168152602001908152602001600020600a0160006101000a81548163ffffffff021916908363ffffffff16021790555083600960008860001916600019168152602001908152602001600020600b0181905550600960008760001916600019168152602001908152602001600020600c01829080600181540180825580915050906001820390600052602060002090600502016000909192909190915060008201518160000155602082015181600101556040820151816002015560608201518160030155608082015181600401555050506001600a6000886000191660001916815260200190815260200160002060006101000a81548160ff021916908315150217905550600c60008154809291906001019190505550600860003373ffffffffffffffffffffffffffffffffffffffff1673ffffffffffffffffffffffffffffffffffffffff168152602001908152602001600020600101869080600181540180825580915050906001820390600052602060002001600090919290919091509060001916905550600860003373ffffffffffffffffffffffffffffffffffffffff1673ffffffffffffffffffffffffffffffffffffffff16815260200190815260200160002060020160008154809291906001019190505550612ef9612eee612ee5612edb8c8b613695565b8d61ffff16613695565b620186a06136cd565b6402540be400613695565b9050612f0581876122de565b507f60ea16e611deaec22d992e02267746362828fca13882a5d0dd11878eaa1812308660405180826000191660001916815260200191505060405180910390a18597505050505050505095945050505050565b6000809054906101000a900473ffffffffffffffffffffffffffffffffffffffff1673ffffffffffffffffffffffffffffffffffffffff163373ffffffffffffffffffffffffffffffffffffffff16141515612fb357600080fd5b612fbc816136e3565b50565b612fc761428b565b612fcf61428b565b612fe6858585846137dd909392919063ffffffff16565b9150509392505050565b61300782846080015161389790919063ffffffff16565b61301e81846080015161389790919063ffffffff16565b505050565b61303a82846080015161389790919063ffffffff16565b6130518184608001516138bc90919063ffffffff16565b505050565b6000613085600460009054906101000a900473ffffffffffffffffffffffffffffffffffffffff16848461390a565b905092915050565b6000613097614329565b61309f6142f9565b60008060008060006130af6142f9565b6000600960008d600019166000191681526020019081526020016000206101c060405190810160405290816000820154600019166000191681526020016001820160009054906101000a900473ffffffffffffffffffffffffffffffffffffffff1673ffffffffffffffffffffffffffffffffffffffff1673ffffffffffffffffffffffffffffffffffffffff1681526020016002820160009054906101000a900473ffffffffffffffffffffffffffffffffffffffff1673ffffffffffffffffffffffffffffffffffffffff1673ffffffffffffffffffffffffffffffffffffffff1681526020016003820154815260200160048201548152602001600582015481526020016006820160009054906101000a900461ffff1661ffff1661ffff1681526020016006820160029054906101000a900461ffff1661ffff1661ffff168152602001600782015481526020016008820154815260200160098201548152602001600a820160009054906101000a900463ffffffff1663ffffffff1663ffffffff168152602001600b8201548152602001600c8201805480602002602001604051908101604052809291908181526020016000905b828210156132cd578382906000526020600020906005020160a060405190810160405290816000820154815260200160018201548152602001600282015481526020016003820154815260200160048201548152505081526020019060010190613268565b50505050815250509850600960008d60001916600019168152602001908152602001600020600c016001600960008f60001916600019168152602001908152602001600020600a0160009054906101000a900463ffffffff160363ffffffff1681548110151561333957fe5b906000526020600020906005020160a0604051908101604052908160008201548152602001600182015481526020016002820154815260200160038201548152602001600482015481525050975087602001518b0396507f73a90aec9019337cd7696c0b2ca3ce431ea2fe8526cbfbdf27ac2f66e868079c876040518082815260200191505060405180910390a16133d087610bce565b95506133fb6133f46133e6618e9461016d6136cd565b8b60c0015161ffff16613695565b60016136cd565b94507f3298b473c897701863a72ac6e7b3520d45529fdea2174f3294fe9d1016a8240f8587604051808381526020018281526020019250505060405180910390a16134546134498787613660565b8a6101000151613695565b9350613464846305f5e1006136cd565b925060a0604051908101604052804281526020018c81526020018960400151815260200189606001518152602001848152509150600960008d60001916600019168152602001908152602001600020600c0182908060018154018082558091505090600182039060005260206000209060050201600090919290919091506000820151816000015560208201518160010155604082015181600201556060820151816003015560808201518160040155505050600960008d60001916600019168152602001908152602001600020600a01600081819054906101000a900463ffffffff168092919060010191906101000a81548163ffffffff021916908363ffffffff160217905550507fec33bc48af09208757bd088a445eacce3755e505c2ac739e05e6d0085ec087888c60405180826000191660001916815260200191505060405180910390a16135db6135d06135c86135c2876103e8613695565b8e6136cd565b6103e86136cd565b6402540be400613695565b90507f12c5aba7cebed6f3965f3f1ea88b8b52d852c9f90c49cb13e9edebcc88453cea816040518082815260200191505060405180910390a1600087131561363957808961014001511015613634576136338c61095e565b5b613651565b8089610120015110156136505761364f8c61095e565b5b5b50505050505050505092915050565b600082821115151561366e57fe5b818303905092915050565b6000818301905082811015151561368c57fe5b80905092915050565b6000808314156136a857600090506136c7565b81830290508183828115156136b957fe5b041415156136c357fe5b8090505b92915050565b600081838115156136da57fe5b04905092915050565b600073ffffffffffffffffffffffffffffffffffffffff168173ffffffffffffffffffffffffffffffffffffffff161415151561371f57600080fd5b8073ffffffffffffffffffffffffffffffffffffffff166000809054906101000a900473ffffffffffffffffffffffffffffffffffffffff1673ffffffffffffffffffffffffffffffffffffffff167f8be0079c531659141344cd1fd0a4f28419497f9722a3daafe3b4186f6b6457e060405160405180910390a3806000806101000a81548173ffffffffffffffffffffffffffffffffffffffff021916908373ffffffffffffffffffffffffffffffffffffffff16021790555050565b6137e561428b565b6137f58560800151610100613c96565b50838560000190600019169081600019168152505082856020019073ffffffffffffffffffffffffffffffffffffffff16908173ffffffffffffffffffffffffffffffffffffffff16815250508185604001907bffffffffffffffffffffffffffffffffffffffffffffffffffffffff191690817bffffffffffffffffffffffffffffffffffffffffffffffffffffffff191681525050849050949350505050565b6138a48260038351613cf0565b6138b78183613e4e90919063ffffffff16565b505050565b6000811215156138d7576138d282600083613cf0565b613906565b613905826001837fffffffffffffffffffffffffffffffffffffffffffffffffffffffffffffffff03613cf0565b5b5050565b600030600554604051602001808373ffffffffffffffffffffffffffffffffffffffff1673ffffffffffffffffffffffffffffffffffffffff166c01000000000000000000000000028152601401828152602001925050506040516020818303038152906040526040518082805190602001908083835b6020831015156139a65780518252602082019150602081019050602083039250613981565b6001836020036101000a038019825116818451168082178552505050505050905001915050604051809103902090506005548360600181815250508360066000836000191660001916815260200190815260200160002060006101000a81548173ffffffffffffffffffffffffffffffffffffffff021916908373ffffffffffffffffffffffffffffffffffffffff16021790555080600019167fb5e6e01e79f91267dc17b4e6314d5d4d03593d2ceee0fbb452b750bd70ea5af960405160405180910390a2600360009054906101000a900473ffffffffffffffffffffffffffffffffffffffff1673ffffffffffffffffffffffffffffffffffffffff16634000aea08584613ab587613e70565b6040518463ffffffff167c0100000000000000000000000000000000000000000000000000000000028152600401808473ffffffffffffffffffffffffffffffffffffffff1673ffffffffffffffffffffffffffffffffffffffff16815260200183815260200180602001828103825283818151815260200191508051906020019080838360005b83811015613b58578082015181840152602081019050613b3d565b50505050905090810190601f168015613b855780820380516001836020036101000a031916815260200191505b50945050505050602060405180830381600087803b158015613ba657600080fd5b505af1158015613bba573d6000803e3d6000fd5b505050506040513d6020811015613bd057600080fd5b81019080805190602001909291905050501515613c7b576040517f08c379a00000000000000000000000000000000000000000000000000000000081526004018080602001828103825260238152602001807f756e61626c6520746f207472616e73666572416e6443616c6c20746f206f726181526020017f636c65000000000000000000000000000000000000000000000000000000000081525060400191505060405180910390fd5b60016005600082825401925050819055508090509392505050565b613c9e6143d6565b6000602083811515613cac57fe5b06141515613cc957602082811515613cc057fe5b06602003820191505b81836020018181525050604051808452600081528281016020016040525082905092915050565b601781111515613d2257613d1c8160058460ff169060020a0260ff16178461409b90919063ffffffff16565b50613e49565b60ff81111515613d6957613d4c601860058460ff169060020a02178461409b90919063ffffffff16565b50613d63816001856140bb9092919063ffffffff16565b50613e48565b61ffff81111515613db157613d94601960058460ff169060020a02178461409b90919063ffffffff16565b50613dab816002856140bb9092919063ffffffff16565b50613e47565b63ffffffff81111515613dfb57613dde601a60058460ff169060020a02178461409b90919063ffffffff16565b50613df5816004856140bb9092919063ffffffff16565b50613e46565b67ffffffffffffffff81111515613e4557613e2c601b60058460ff169060020a02178461409b90919063ffffffff16565b50613e43816008856140bb9092919063ffffffff16565b505b5b5b5b5b505050565b613e566143d6565b613e68838460000151518485516140dd565b905092915050565b6060600460009054906101000a900473ffffffffffffffffffffffffffffffffffffffff1673ffffffffffffffffffffffffffffffffffffffff16634042994690507c01000000000000000000000000000000000000000000000000000000000260008084600001518560200151866040015187606001516001896080015160000151604051602401808973ffffffffffffffffffffffffffffffffffffffff1673ffffffffffffffffffffffffffffffffffffffff16815260200188815260200187600019166000191681526020018673ffffffffffffffffffffffffffffffffffffffff1673ffffffffffffffffffffffffffffffffffffffff168152602001857bffffffffffffffffffffffffffffffffffffffffffffffffffffffff19167bffffffffffffffffffffffffffffffffffffffffffffffffffffffff1916815260200184815260200183815260200180602001828103825283818151815260200191508051906020019080838360005b83811015613ffe578082015181840152602081019050613fe3565b50505050905090810190601f16801561402b5780820380516001836020036101000a031916815260200191505b509950505050505050505050604051602081830303815290604052907bffffffffffffffffffffffffffffffffffffffffffffffffffffffff19166020820180517bffffffffffffffffffffffffffffffffffffffffffffffffffffffff83818316178352505050509050919050565b6140a36143d6565b6140b3838460000151518461419a565b905092915050565b6140c36143d6565b6140d48485600001515185856141ea565b90509392505050565b6140e56143d6565b6000806000855185111515156140fa57600080fd5b876020015185880111156141255761412488600261411e8b602001518b8a0161424b565b02614267565b5b8751805188602083010194508089880111156141415788870182525b60208801935050505b60208510151561416f578151835260208301925060208201915060208503945061414a565b6001856020036101000a03905080198251168184511681811785525050879350505050949350505050565b6141a26143d6565b8360200151831015156141c1576141c0846002866020015102614267565b5b83518051602085830101848153818614156141dd576001820183525b5050508390509392505050565b6141f26143d6565b6000856020015185840111156142125761421186600287860102614267565b5b6001836101000a039050855183868201018583198251161781528151858801111561423d5784870182525b505085915050949350505050565b60008183111561425d57829050614261565b8190505b92915050565b60608260000151905061427a8383613c96565b506142858382613e4e565b50505050565b60c06040519081016040528060008019168152602001600073ffffffffffffffffffffffffffffffffffffffff16815260200160007bffffffffffffffffffffffffffffffffffffffffffffffffffffffff19168152602001600081526020016142f36143f0565b81525090565b60a06040519081016040528060008152602001600081526020016000815260200160008152602001600081525090565b6101c06040519081016040528060008019168152602001600073ffffffffffffffffffffffffffffffffffffffff168152602001600073ffffffffffffffffffffffffffffffffffffffff168152602001600081526020016000815260200160008152602001600061ffff168152602001600061ffff168152602001600081526020016000815260200160008152602001600063ffffffff16815260200160008152602001606081525090565b604080519081016040528060608152602001600081525090565b6040805190810160405280606081526020016000815250905600a165627a7a723058205cf6831433c6b26e04108dacc0fc1fa57cfaa583f2bf1f84a6c6a3f41cecbced0029",
  "source": "pragma solidity 0.4.24;\n\nimport \"chainlink/contracts/interfaces/AggregatorInterface.sol\";\nimport \"openzeppelin-solidity/contracts/ownership/Ownable.sol\";\n// import \"openzeppelin-solidity/contracts/Math/SafeMath.sol\";\nimport \"chainlink/contracts/ChainlinkClient.sol\";\n\n/**\n * @dev Interface of the ERC20 standard as defined in the EIP. Does not include\n * the optional functions; to access them see {ERC20Detailed}.\n */\ninterface IERC20 {\n    function totalSupply() external view returns (uint256);\n    function balanceOf(address account) external view returns (uint256);\n    function transfer(address recipient, uint256 amount) external returns (bool);\n    function allowance(address owner, address spender) external view returns (uint256);\n    function approve(address spender, uint256 amount) external returns (bool);\n    function transferFrom(address sender, address recipient, uint256 amount) external returns (bool);\n    event Transfer(address indexed from, address indexed to, uint256 value);\n    event Approval(address indexed owner, address indexed spender, uint256 value);\n}\n\ncontract LinkTRS is Ownable, ChainlinkClient {\n    \n    //Struct for a user account\n    struct account {\n        address owner;\n        bytes32[] contracts;\n        uint256 numContracts;\n        uint256 deposited; //total cDAI deposited\n    }\n\n    struct npvCalcs {\n        uint256 date;\n        uint256 price;\n        uint256 takersMargin;\n        uint256 makersMargin;\n        uint256 npv; //change in npv\n    }\n\n    //Struct for a contract\n    struct trsContract {\n        bytes32 id;\n        address takerAddress;\n        address makerAddress;\n        uint256 originalPrice;\n        uint256 expiryDate;\n        uint256 startDate;\n        uint16 interest;\n        uint16 requiredMargin;\n        uint256 originalValue;\n        uint256 takersMargin;\n        uint256 makersMargin;\n        uint32 numNPV;\n        uint256 offerExpiryDate;\n        npvCalcs[] npvs;\n    }\n\n    event ContractCreated(bytes32 contractID);\n    event Liquidate(bytes32 _contractID);\n    event Deposit(bytes32 _contractID, uint amount);\n    event npvUpdated(bytes32 contractID);\n    event priceChangeEvent(int priceChange);\n    event AttemptTransfer(address from, address to, uint value);\n    event TestEmit(uint interest, uint priceDiff);\n    event amountToPay(uint tokens);\n\n    AggregatorInterface internal reference;\n    mapping(address => account) users;\n    mapping (bytes32 => trsContract) contracts;\n    mapping (bytes32 => bool) validContracts;\n    mapping (bytes32 => bytes32) requestToContract;\n    uint256 public contractCounter;\n    IERC20 token;\n\n    constructor(address tokenAddress, address _aggregator, address _link) public {\n        reference = AggregatorInterface(_aggregator);\n        token = IERC20(tokenAddress);\n        // Set the address for the LINK token for the network.\n        if(_link == address(0)) {\n            // Useful for deploying to public networks.\n            setPublicChainlinkToken();\n        } else {\n            // Useful if you're deploying to a local network.\n            setChainlinkToken(_link);\n        }\n    }\n\n    //** Functions for Chainlink Requests */\n    // Creates a Chainlink request with the uint256 multiplier job and returns the requestId\n    function requestEthereumPrice(bytes32 _contractID, bytes32 _jobId) public returns (bytes32 requestId) {\n        // newRequest takes a JobID, a callback address, and callback function as input\n        Chainlink.Request memory req = buildChainlinkRequest(_jobId, this, this.fulfillEthereumPrice.selector);\n        // Adds a URL with the key \"get\" to the request parameters\n        req.add(\"get\", \"https://min-api.cryptocompare.com/data/price?fsym=LINK&tsyms=DAI\");\n        // Uses input param (dot-delimited string) as the \"path\" in the request parameters\n        req.add(\"path\", \"DAI\");\n        // Adds an integer with the key \"times\" to the request parameters\n        req.addInt(\"times\", 100000000);\n        // Sends the request with 1 LINK to the oracle contract\n        requestId = sendChainlinkRequest(req, 1 * LINK);\n    }\n\n    // // Creates a Chainlink request with the uint256 multiplier job and returns the requestId\n    // function requestEthereumPriceFuture(bytes32 _contractID, bytes32 _jobId, string _currency, uint256 requestTime) public returns (bytes32 requestId) {\n    //     // newRequest takes a JobID, a callback address, and callback function as input\n    //     Chainlink.Request memory req = buildChainlinkRequest(_jobId, this, this.fulfillEthereumPriceFuture.selector);\n    //     // Adds a URL with the key \"get\" to the request parameters\n    //     req.add(\"get\", \"https://min-api.cryptocompare.com/data/price?fsym=LINK&tsyms=DAI\");\n    //     // Uses input param (dot-delimited string) as the \"path\" in the request parameters\n    //     req.add(\"path\", _currency);\n    //     // Adds an integer with the key \"times\" to the request parameters\n    //     req.addInt(\"times\", 100000000);\n    //     req.add(\"runat\", requestTime);\n    //     // Sends the request with 1 LINK to the oracle contract\n    //     requestId = sendChainlinkRequest(req, 1 * LINK);\n    // }\n\n    function fulfillEthereumPrice(bytes32 _requestId, uint256 _price) public recordChainlinkFulfillment(_requestId) {\n            bytes32 _contractID = requestToContract[_requestId];\n            require(validContracts[_contractID], \"Invalid request\");\n            remargin(_contractID, _price);\n    }\n\n    // function fulfillEthereumPriceFuture(bytes32 _requestId, uint256 _price) public recordChainlinkFulfillment(_requestId) {\n    //         //price = _price;\n    // }\n\n    /**\n    * Gets the latest price from the reference data contract\n    */\n    function getLatestPrice() public view returns (uint256) {\n        return abs(reference.currentAnswer());\n    }\n\n    /**\n    * Gets the last updated block height from the reference data contract\n    */\n    function getLatestUpdateHeight() public view returns (uint256) {\n        return reference.updatedHeight();\n    }\n\n    /**\n    * Allows users to deposit LINK to the contract\n    */\n    function onTokenTransfer(address from, uint256 amount, bytes data) public returns (bool success) {\n        users[from].deposited += amount;\n    }\n\n    function createContract(uint256 timeToLive, uint256 length, uint16 interest, uint16 requiredMargin, uint256 amountOfLink) public returns (bytes32) {        \n        //Pull required info\n        uint256 price = getLatestPrice(); //price (x 10^9)\n        bytes32 contractID = keccak256(contractCounter);\n        uint256 expiryDate = now + length * 1 days;\n        uint256 offerExpiryDate = now + timeToLive * 1 minutes;\n        //uint256 value = SafeMath.mul(amountOfLink, scaledPrice);\n        uint256 value = SafeMath.mul(amountOfLink, price);\n        //Create initial npv entry\n        npvCalcs memory npvEntry = npvCalcs(now, price, 0, 0, 0);\n\n        //Create contract\n        contracts[contractID].id = contractID;\n        contracts[contractID].takerAddress = address(0);\n        contracts[contractID].makerAddress = msg.sender;\n        contracts[contractID].originalPrice = price;\n        contracts[contractID].expiryDate = expiryDate;\n        contracts[contractID].startDate = now;\n        contracts[contractID].interest = interest;\n        contracts[contractID].requiredMargin = requiredMargin;\n        contracts[contractID].takersMargin = 0;\n        contracts[contractID].makersMargin = 0;\n        contracts[contractID].originalValue = value;\n        contracts[contractID].numNPV = 1;\n        contracts[contractID].offerExpiryDate = offerExpiryDate;\n        contracts[contractID].npvs.push(npvEntry);\n        validContracts[contractID] = true;\n        contractCounter++;\n\n        //Update user info\n        users[msg.sender].contracts.push(contractID);\n        users[msg.sender].numContracts++;\n\n        //Deposit into makers margin account. Mul by 10000000000 to convert to tokens amount (10^18)\n        uint tokensToDeposit = SafeMath.mul(SafeMath.div(SafeMath.mul(SafeMath.mul(amountOfLink, price), requiredMargin), 100000), 10000000000);\n        deposit(tokensToDeposit, contractID);\n\n        emit ContractCreated(contractID);\n        return contractID;\n    }\n\n    function joinContract(bytes32 _contractID, uint256 tokensToDeposit) public returns(bool) {\n        require(validContracts[_contractID], \"Please use a valid contract ID\");\n        require(now <= contracts[_contractID].offerExpiryDate, \"You can only accept a currently valid offer\");\n        //Require the user to transfer the required margin\n        require(token.allowance(msg.sender, address(this)) >= tokensToDeposit, \"You have not provided access to enough tokens\");\n        //Deposit into makers margin account. Mul by 10000000000 to convert to tokens amount (10^18)\n        contracts[_contractID].takerAddress = msg.sender;\n        deposit(tokensToDeposit, _contractID);\n        return true;\n    }\n\n    function getUserContract(uint i) public view returns(bytes32) {\n        return users[msg.sender].contracts[i];\n    }\n\n    function getContractByIndex(uint index) public view returns (address, address, uint256, uint256, uint256, \n    uint16, uint256, uint256, uint256, uint256, uint256) {\n        return getContractInfo(keccak256(index));\n    }\n\n    function getContractInfo(bytes32 _contractID) public view returns (address, address, uint256, uint256, uint256, \n    uint16, uint256, uint256, uint256, uint256, uint256) {\n        require(validContracts[_contractID], \"Please use a valid contract ID\");\n        trsContract memory _contract = contracts[_contractID];\n        return (_contract.takerAddress, _contract.makerAddress, _contract.originalPrice, _contract.startDate,\n             _contract.expiryDate, _contract.interest, _contract.originalValue, _contract.takersMargin, _contract.makersMargin,\n             _contract.offerExpiryDate, _contract.numNPV);\n    }\n\n    function getContractNPV(bytes32 _contractID, uint i) public view returns (uint256, uint256, uint256, uint256, uint256) {\n        npvCalcs memory thisNPV = contracts[_contractID].npvs[i];\n        return (thisNPV.date, thisNPV.price, thisNPV.takersMargin, thisNPV.makersMargin, thisNPV.npv);\n    }\n\n    /**\n    * Function for calculating the NPV at a given point in time for a specific contract.\n    * @dev requires the starting state for the NVP array to be intilized (when contract is created)\n    */\n    function calcNPV(bytes32 _contractId, uint256 price) internal returns (bool) {\n        //Calc npv\n        //uint256 price = getLatestPrice(); //price * 10^9\n        //uint256 scaledPrice = SafeMath.div(price, 1000000); //this converts it to price ($ x 1000) eg $1.24 = 1240\n\n        trsContract memory _contract = contracts[_contractId];\n\n        npvCalcs memory lastNPV = contracts[_contractId].npvs[contracts[_contractId].numNPV - 1];\n        int256 priceChange = (int256)(price - lastNPV.price);\n        emit priceChangeEvent(priceChange);\n        uint256 absPriceChange = abs(priceChange);\n        //uint256 timeChange = SafeMath.div(SafeMath.sub(now + 31536000, lastNPV.date), 86400); //for testing pretend a year has past\n        //Interest is represented as percent x 1000 (i.e 5.5% = 5500)\n        uint256 interestPercent = SafeMath.div(SafeMath.mul(SafeMath.div(36500, 365), _contract.interest), 1);\n\n        //At this point, price diff is (price diff) * 10^7 and interest is % * 10^2. Want percent as a decimal * 10^7 (i.e % in 10^)\n        //eg (5.5% should be 0.05500 * 10^7 = 5500 * 10^2)\n        emit TestEmit(interestPercent, absPriceChange);\n        uint256 npv = SafeMath.mul(SafeMath.sub(absPriceChange,interestPercent),\n            _contract.originalValue);\n        //this is to account for the fact that the price is increased this much before being written on chain\n        uint256 scaledNpv = SafeMath.div(npv, 100000000); //remove excess from interest being x1000\n        \n        // //TODO incoperate margin changes here\n        npvCalcs memory thisCalc = npvCalcs(now, price, lastNPV.takersMargin, lastNPV.makersMargin, scaledNpv);\n        contracts[_contractId].npvs.push(thisCalc);\n        contracts[_contractId].numNPV++;\n\n        emit npvUpdated(_contractId);\n\n        //TODO Calc amount of tokens to transfer\n        //npv is excess to pay in $x.xx * 10^8.\n        uint amountOfTokens = SafeMath.mul(SafeMath.div(SafeMath.div(SafeMath.mul(npv,1000),price), 1000), 10000000000);\n        //Now to convert to tokens (which are in 10^18), we need to multiply by 10^11 (since we are currently working in 10^9)\n        emit amountToPay(amountOfTokens);\n\n        if(priceChange > 0) {\n            //Price has gone up, transfer from maker margin to taker margin\n            if (_contract.makersMargin < amountOfTokens) {\n                liquidate(_contractId);\n            }\n        } else {\n            //Price has gone down, transfer from taker margin to maker margin\n            if (_contract.takersMargin < amountOfTokens) {\n                liquidate(_contractId);\n            }\n           //return npvCalcs(now, price, lastNPV.takersMargin, lastNPV.makersMargin, npv);\n        }\n    }\n\n    /**\n    * Function for recalculating contract terms and the margin accounts for a set contract\n    */\n    function remargin(bytes32 _contractId, uint256 price) public returns(bool) {\n        require(validContracts[_contractId], \"You can only remargin a valid contract\");\n        calcNPV(_contractId, price);\n        return true;\n    }\n\n    function requestRemargin(bytes32 _contractID) public returns(bool) {\n        requestEthereumPrice(_contractID, \"e0fc58dc839a42808c3c51186f6f8381\"); //make request to the SDL node\n    }\n\n    /**\n    * Function for liquidating a contract\n    */\n    function liquidate(bytes32 _contractId) public {\n        emit Liquidate(_contractId);\n        return;\n    }\n\n    function abs(int256 num) public returns (uint256) {\n        if (num < 0) {\n            return (uint256)(-num);\n        } else {\n            return (uint256)(num);\n        }\n    }\n\n    /**\n    * Allows a user to deposit tokens onto the platform\n    */\n    function deposit(uint value, bytes32 _contractID) public returns (bool) {\n        require(validContracts[_contractID], \"Please use a valid contract ID\");\n        emit AttemptTransfer(msg.sender, address(this), value);\n        require(token.transferFrom(msg.sender, address(this), value), \"Token transfer must succeed\");\n        trsContract memory _contract = contracts[_contractID];\n        if (msg.sender == _contract.takerAddress) {\n            contracts[_contractID].takersMargin = SafeMath.add(contracts[_contractID].takersMargin, value);\n        } else {\n            contracts[_contractID].makersMargin = SafeMath.add(contracts[_contractID].makersMargin, value);\n        }\n        users[msg.sender].deposited = SafeMath.add(users[msg.sender].deposited, value);\n        emit Deposit(_contractID, value);\n        return true;\n    }\n\n    function withdraw(uint value, bytes32 _contractID) public returns(bool) {\n        require(validContracts[_contractID], \"Please use a valid contract ID\");\n        trsContract memory _contract = contracts[_contractID];\n        if (msg.sender == _contract.takerAddress) {\n            require(contracts[_contractID].takersMargin >= value, \"You can only withdraw an amount you have deposited\");\n            //TODO two party vote to withdraw\n            require(token.transfer(msg.sender, value), \"Token transfer must succeed\");\n            //Decrement amount\n            users[msg.sender].deposited = SafeMath.sub(users[msg.sender].deposited, value);\n            contracts[_contractID].takersMargin = SafeMath.sub(contracts[_contractID].takersMargin, value);\n        } else {\n            require(contracts[_contractID].makersMargin >= value, \"You can only withdraw an amount you have deposited\");\n            //TODO two party vote to withdraw\n            require(token.transfer(msg.sender, value), \"Token transfer must succeed\");\n            //Decrement amount\n            users[msg.sender].deposited = SafeMath.sub(users[msg.sender].deposited, value);\n            contracts[_contractID].makersMargin = SafeMath.sub(contracts[_contractID].makersMargin, value);\n        }\n    }\n\n    function getUserDetails(address _user) public returns(uint256, uint256) {\n        account user = users[_user];\n        return (user.numContracts, user.deposited);\n    }\n\n}",
  "sourcePath": "/Users/raymogg/dev/SDL/LinkTRS/contracts/LinkTRS.sol",
  "compiler": {
    "name": "solc",
    "version": "0.4.24+commit.e67f0147.Emscripten.clang"
  },
  "schemaVersion": "3.0.2",
  "updatedAt": "2019-10-29T05:11:19.573Z",
  "devdoc": {
    "methods": {
      "renounceOwnership()": {
        "details": "Allows the current owner to relinquish control of the contract."
      },
      "transferOwnership(address)": {
        "details": "Allows the current owner to transfer control of the contract to a newOwner.",
        "params": {
          "_newOwner": "The address to transfer ownership to."
        }
      }
    }
  },
  "userdoc": {
    "methods": {
      "deposit(uint256,bytes32)": {
        "notice": "Allows a user to deposit tokens onto the platform"
      },
      "getLatestPrice()": {
        "notice": "Gets the latest price from the reference data contract"
      },
      "getLatestUpdateHeight()": {
        "notice": "Gets the last updated block height from the reference data contract"
      },
      "liquidate(bytes32)": {
        "notice": "Function for liquidating a contract"
      },
      "onTokenTransfer(address,uint256,bytes)": {
        "notice": "Allows users to deposit LINK to the contract"
      },
      "remargin(bytes32,uint256)": {
        "notice": "Function for recalculating contract terms and the margin accounts for a set contract"
      },
      "renounceOwnership()": {
        "notice": "Renouncing to ownership will leave the contract without an owner. It will not be possible to call the functions with the `onlyOwner` modifier anymore."
      }
    }
  }
}