{
  "contractName": "LinkTRS",
  "abi": [
    {
      "constant": false,
      "inputs": [],
      "name": "renounceOwnership",
      "outputs": [],
      "payable": false,
      "stateMutability": "nonpayable",
      "type": "function",
      "signature": "0x715018a6"
    },
    {
      "constant": true,
      "inputs": [],
      "name": "owner",
      "outputs": [
        {
          "name": "",
          "type": "address"
        }
      ],
      "payable": false,
      "stateMutability": "view",
      "type": "function",
      "signature": "0x8da5cb5b"
    },
    {
      "constant": false,
      "inputs": [
        {
          "name": "_newOwner",
          "type": "address"
        }
      ],
      "name": "transferOwnership",
      "outputs": [],
      "payable": false,
      "stateMutability": "nonpayable",
      "type": "function",
      "signature": "0xf2fde38b"
    },
    {
      "inputs": [
        {
          "name": "tokenAddress",
          "type": "address"
        },
        {
          "name": "_aggregator",
          "type": "address"
        }
      ],
      "payable": false,
      "stateMutability": "nonpayable",
      "type": "constructor",
      "signature": "constructor"
    },
    {
      "anonymous": false,
      "inputs": [
        {
          "indexed": false,
          "name": "contractID",
          "type": "bytes32"
        }
      ],
      "name": "ContractCreated",
      "type": "event",
      "signature": "0x60ea16e611deaec22d992e02267746362828fca13882a5d0dd11878eaa181230"
    },
    {
      "anonymous": false,
      "inputs": [
        {
          "indexed": false,
          "name": "_contractID",
          "type": "bytes32"
        }
      ],
      "name": "Liquidate",
      "type": "event",
      "signature": "0x49402ac80e80185fec1d9f8b8360275213386717f39afd886549219d1f0c17d3"
    },
    {
      "anonymous": false,
      "inputs": [
        {
          "indexed": false,
          "name": "_contractID",
          "type": "bytes32"
        },
        {
          "indexed": false,
          "name": "amount",
          "type": "uint256"
        }
      ],
      "name": "Deposit",
      "type": "event",
      "signature": "0x98e783c3864bbf744a057ef605a2a61701c3b62b5ed68b3745b99094497daf1f"
    },
    {
      "anonymous": false,
      "inputs": [
        {
          "indexed": false,
          "name": "contractID",
          "type": "bytes32"
        }
      ],
      "name": "npvUpdated",
      "type": "event",
      "signature": "0xec33bc48af09208757bd088a445eacce3755e505c2ac739e05e6d0085ec08788"
    },
    {
      "anonymous": false,
      "inputs": [
        {
          "indexed": false,
          "name": "priceChange",
          "type": "int256"
        }
      ],
      "name": "priceChangeEvent",
      "type": "event",
      "signature": "0x73a90aec9019337cd7696c0b2ca3ce431ea2fe8526cbfbdf27ac2f66e868079c"
    },
    {
      "anonymous": false,
      "inputs": [
        {
          "indexed": false,
          "name": "from",
          "type": "address"
        },
        {
          "indexed": false,
          "name": "to",
          "type": "address"
        },
        {
          "indexed": false,
          "name": "value",
          "type": "uint256"
        }
      ],
      "name": "AttemptTransfer",
      "type": "event",
      "signature": "0xd80ebeb49a88fadb5ef8b540253fcf5b9f5ad633df71d5b79ad390afdbb1385f"
    },
    {
      "anonymous": false,
      "inputs": [
        {
          "indexed": false,
          "name": "interest",
          "type": "uint256"
        },
        {
          "indexed": false,
          "name": "priceDiff",
          "type": "uint256"
        }
      ],
      "name": "TestEmit",
      "type": "event",
      "signature": "0x3298b473c897701863a72ac6e7b3520d45529fdea2174f3294fe9d1016a8240f"
    },
    {
      "anonymous": false,
      "inputs": [
        {
          "indexed": false,
          "name": "tokens",
          "type": "uint256"
        }
      ],
      "name": "amountToPay",
      "type": "event",
      "signature": "0x12c5aba7cebed6f3965f3f1ea88b8b52d852c9f90c49cb13e9edebcc88453cea"
    },
    {
      "anonymous": false,
      "inputs": [
        {
          "indexed": true,
          "name": "previousOwner",
          "type": "address"
        }
      ],
      "name": "OwnershipRenounced",
      "type": "event",
      "signature": "0xf8df31144d9c2f0f6b59d69b8b98abd5459d07f2742c4df920b25aae33c64820"
    },
    {
      "anonymous": false,
      "inputs": [
        {
          "indexed": true,
          "name": "previousOwner",
          "type": "address"
        },
        {
          "indexed": true,
          "name": "newOwner",
          "type": "address"
        }
      ],
      "name": "OwnershipTransferred",
      "type": "event",
      "signature": "0x8be0079c531659141344cd1fd0a4f28419497f9722a3daafe3b4186f6b6457e0"
    },
    {
      "constant": true,
      "inputs": [],
      "name": "getLatestPrice",
      "outputs": [
        {
          "name": "",
          "type": "uint256"
        }
      ],
      "payable": false,
      "stateMutability": "view",
      "type": "function",
      "signature": "0x8e15f473"
    },
    {
      "constant": true,
      "inputs": [],
      "name": "getLatestUpdateHeight",
      "outputs": [
        {
          "name": "",
          "type": "uint256"
        }
      ],
      "payable": false,
      "stateMutability": "view",
      "type": "function",
      "signature": "0x9993d669"
    },
    {
      "constant": false,
      "inputs": [
        {
          "name": "from",
          "type": "address"
        },
        {
          "name": "amount",
          "type": "uint256"
        },
        {
          "name": "data",
          "type": "bytes"
        }
      ],
      "name": "onTokenTransfer",
      "outputs": [
        {
          "name": "success",
          "type": "bool"
        }
      ],
      "payable": false,
      "stateMutability": "nonpayable",
      "type": "function",
      "signature": "0xa4c0ed36"
    },
    {
      "constant": false,
      "inputs": [
        {
          "name": "timeToLive",
          "type": "uint256"
        },
        {
          "name": "length",
          "type": "uint256"
        },
        {
          "name": "interest",
          "type": "uint16"
        },
        {
          "name": "requiredMargin",
          "type": "uint16"
        },
        {
          "name": "amountOfLink",
          "type": "uint256"
        }
      ],
      "name": "createContract",
      "outputs": [
        {
          "name": "",
          "type": "bytes32"
        }
      ],
      "payable": false,
      "stateMutability": "nonpayable",
      "type": "function",
      "signature": "0xde4a21ba"
    },
    {
      "constant": false,
      "inputs": [
        {
          "name": "_contractID",
          "type": "bytes32"
        },
        {
          "name": "tokensToDeposit",
          "type": "uint256"
        }
      ],
      "name": "joinContract",
      "outputs": [
        {
          "name": "",
          "type": "bool"
        }
      ],
      "payable": false,
      "stateMutability": "nonpayable",
      "type": "function",
      "signature": "0x48268381"
    },
    {
      "constant": true,
      "inputs": [
        {
          "name": "i",
          "type": "uint256"
        }
      ],
      "name": "getUserContract",
      "outputs": [
        {
          "name": "",
          "type": "bytes32"
        }
      ],
      "payable": false,
      "stateMutability": "view",
      "type": "function",
      "signature": "0x193fc8e6"
    },
    {
      "constant": true,
      "inputs": [
        {
          "name": "index",
          "type": "uint256"
        }
      ],
      "name": "getContractByIndex",
      "outputs": [
        {
          "name": "",
          "type": "address"
        },
        {
          "name": "",
          "type": "address"
        },
        {
          "name": "",
          "type": "uint256"
        },
        {
          "name": "",
          "type": "uint256"
        },
        {
          "name": "",
          "type": "uint256"
        },
        {
          "name": "",
          "type": "uint16"
        },
        {
          "name": "",
          "type": "uint256"
        },
        {
          "name": "",
          "type": "uint256"
        },
        {
          "name": "",
          "type": "uint256"
        }
      ],
      "payable": false,
      "stateMutability": "view",
      "type": "function",
      "signature": "0x0264a101"
    },
    {
      "constant": true,
      "inputs": [
        {
          "name": "_contractID",
          "type": "bytes32"
        }
      ],
      "name": "getContractInfo",
      "outputs": [
        {
          "name": "",
          "type": "address"
        },
        {
          "name": "",
          "type": "address"
        },
        {
          "name": "",
          "type": "uint256"
        },
        {
          "name": "",
          "type": "uint256"
        },
        {
          "name": "",
          "type": "uint256"
        },
        {
          "name": "",
          "type": "uint16"
        },
        {
          "name": "",
          "type": "uint256"
        },
        {
          "name": "",
          "type": "uint256"
        },
        {
          "name": "",
          "type": "uint256"
        }
      ],
      "payable": false,
      "stateMutability": "view",
      "type": "function",
      "signature": "0x613e2de2"
    },
    {
      "constant": true,
      "inputs": [
        {
          "name": "_contractID",
          "type": "bytes32"
        },
        {
          "name": "i",
          "type": "uint256"
        }
      ],
      "name": "getContractNPV",
      "outputs": [
        {
          "name": "",
          "type": "uint256"
        },
        {
          "name": "",
          "type": "uint256"
        },
        {
          "name": "",
          "type": "uint256"
        },
        {
          "name": "",
          "type": "uint256"
        },
        {
          "name": "",
          "type": "uint256"
        }
      ],
      "payable": false,
      "stateMutability": "view",
      "type": "function",
      "signature": "0x53d1b190"
    },
    {
      "constant": false,
      "inputs": [
        {
          "name": "_contractId",
          "type": "bytes32"
        }
      ],
      "name": "remargin",
      "outputs": [
        {
          "name": "",
          "type": "bool"
        }
      ],
      "payable": false,
      "stateMutability": "nonpayable",
      "type": "function",
      "signature": "0x92e730d7"
    },
    {
      "constant": false,
      "inputs": [
        {
          "name": "_contractId",
          "type": "bytes32"
        }
      ],
      "name": "liquidate",
      "outputs": [],
      "payable": false,
      "stateMutability": "nonpayable",
      "type": "function",
      "signature": "0x0a71096e"
    },
    {
      "constant": false,
      "inputs": [
        {
          "name": "num",
          "type": "int256"
        }
      ],
      "name": "abs",
      "outputs": [
        {
          "name": "",
          "type": "uint256"
        }
      ],
      "payable": false,
      "stateMutability": "nonpayable",
      "type": "function",
      "signature": "0x1b5ac4b5"
    },
    {
      "constant": false,
      "inputs": [
        {
          "name": "value",
          "type": "uint256"
        },
        {
          "name": "_contractID",
          "type": "bytes32"
        }
      ],
      "name": "deposit",
      "outputs": [
        {
          "name": "",
          "type": "bool"
        }
      ],
      "payable": false,
      "stateMutability": "nonpayable",
      "type": "function",
      "signature": "0xc9630cb0"
    },
    {
      "constant": false,
      "inputs": [
        {
          "name": "value",
          "type": "uint256"
        },
        {
          "name": "_contractID",
          "type": "bytes32"
        }
      ],
      "name": "withdraw",
      "outputs": [
        {
          "name": "",
          "type": "bool"
        }
      ],
      "payable": false,
      "stateMutability": "nonpayable",
      "type": "function",
      "signature": "0xa8d2021a"
    },
    {
      "constant": false,
      "inputs": [
        {
          "name": "_user",
          "type": "address"
        }
      ],
      "name": "getUserDetails",
      "outputs": [
        {
          "name": "",
          "type": "uint256"
        },
        {
          "name": "",
          "type": "uint256"
        }
      ],
      "payable": false,
      "stateMutability": "nonpayable",
      "type": "function",
      "signature": "0xcc3d967b"
    }
  ],
  "bytecode": "0x608060405234801561001057600080fd5b506040516040806133698339810180604052810190808051906020019092919080519060200190929190505050336000806101000a81548173ffffffffffffffffffffffffffffffffffffffff021916908373ffffffffffffffffffffffffffffffffffffffff16021790555080600160006101000a81548173ffffffffffffffffffffffffffffffffffffffff021916908373ffffffffffffffffffffffffffffffffffffffff16021790555081600660006101000a81548173ffffffffffffffffffffffffffffffffffffffff021916908373ffffffffffffffffffffffffffffffffffffffff1602179055505050613259806101106000396000f3006080604052600436106100fc576000357c0100000000000000000000000000000000000000000000000000000000900463ffffffff1680630264a101146101015780630a71096e146101da578063193fc8e61461020b5780631b5ac4b514610254578063482683811461029557806353d1b190146102e8578063613e2de214610353578063715018a6146104305780638da5cb5b146104475780638e15f4731461049e57806392e730d7146104c95780639993d66914610512578063a4c0ed361461053d578063a8d2021a146105e8578063c9630cb01461063b578063cc3d967b1461068e578063de4a21ba146106ec578063f2fde38b14610765575b600080fd5b34801561010d57600080fd5b5061012c600480360381019080803590602001909291905050506107a8565b604051808a73ffffffffffffffffffffffffffffffffffffffff1673ffffffffffffffffffffffffffffffffffffffff1681526020018973ffffffffffffffffffffffffffffffffffffffff1673ffffffffffffffffffffffffffffffffffffffff1681526020018881526020018781526020018681526020018561ffff1661ffff168152602001848152602001838152602001828152602001995050505050505050505060405180910390f35b3480156101e657600080fd5b5061020960048036038101908080356000191690602001909291905050506107f3565b005b34801561021757600080fd5b5061023660048036038101908080359060200190929190505050610835565b60405180826000191660001916815260200191505060405180910390f35b34801561026057600080fd5b5061027f60048036038101908080359060200190929190505050610898565b6040518082815260200191505060405180910390f35b3480156102a157600080fd5b506102ce6004803603810190808035600019169060200190929190803590602001909291905050506108b6565b604051808215151515815260200191505060405180910390f35b3480156102f457600080fd5b50610321600480360381019080803560001916906020019092919080359060200190929190505050610c4c565b604051808681526020018581526020018481526020018381526020018281526020019550505050505060405180910390f35b34801561035f57600080fd5b506103826004803603810190808035600019169060200190929190505050610d03565b604051808a73ffffffffffffffffffffffffffffffffffffffff1673ffffffffffffffffffffffffffffffffffffffff1681526020018973ffffffffffffffffffffffffffffffffffffffff1673ffffffffffffffffffffffffffffffffffffffff1681526020018881526020018781526020018681526020018561ffff1661ffff168152602001848152602001838152602001828152602001995050505050505050505060405180910390f35b34801561043c57600080fd5b5061044561102c565b005b34801561045357600080fd5b5061045c61112e565b604051808273ffffffffffffffffffffffffffffffffffffffff1673ffffffffffffffffffffffffffffffffffffffff16815260200191505060405180910390f35b3480156104aa57600080fd5b506104b3611153565b6040518082815260200191505060405180910390f35b3480156104d557600080fd5b506104f86004803603810190808035600019169060200190929190505050611223565b604051808215151515815260200191505060405180910390f35b34801561051e57600080fd5b506105276112fb565b6040518082815260200191505060405180910390f35b34801561054957600080fd5b506105ce600480360381019080803573ffffffffffffffffffffffffffffffffffffffff16906020019092919080359060200190929190803590602001908201803590602001908080601f01602080910402602001604051908101604052809392919081815260200183838082843782019150505050505091929192905050506113c3565b604051808215151515815260200191505060405180910390f35b3480156105f457600080fd5b5061062160048036038101908080359060200190929190803560001916906020019092919050505061141c565b604051808215151515815260200191505060405180910390f35b34801561064757600080fd5b50610674600480360381019080803590602001909291908035600019169060200190929190505050611d46565b604051808215151515815260200191505060405180910390f35b34801561069a57600080fd5b506106cf600480360381019080803573ffffffffffffffffffffffffffffffffffffffff169060200190929190505050612410565b604051808381526020018281526020019250505060405180910390f35b3480156106f857600080fd5b506107476004803603810190808035906020019092919080359060200190929190803561ffff169060200190929190803561ffff1690602001909291908035906020019092919050505061246a565b60405180826000191660001916815260200191505060405180910390f35b34801561077157600080fd5b506107a6600480360381019080803573ffffffffffffffffffffffffffffffffffffffff16906020019092919050505061298e565b005b60008060008060008060008060006107d48a604051808281526020019150506040518091039020610d03565b9850985098509850985098509850985098509193959799909294969850565b7f49402ac80e80185fec1d9f8b8360275213386717f39afd886549219d1f0c17d38160405180826000191660001916815260200191505060405180910390a150565b6000600260003373ffffffffffffffffffffffffffffffffffffffff1673ffffffffffffffffffffffffffffffffffffffff1681526020019081526020016000206001018281548110151561088657fe5b90600052602060002001549050919050565b6000808212156108ad578160000390506108b1565b8190505b919050565b600060046000846000191660001916815260200190815260200160002060009054906101000a900460ff161515610955576040517f08c379a000000000000000000000000000000000000000000000000000000000815260040180806020018281038252601e8152602001807f506c656173652075736520612076616c696420636f6e7472616374204944000081525060200191505060405180910390fd5b600360008460001916600019168152602001908152602001600020600b01544211151515610a11576040517f08c379a000000000000000000000000000000000000000000000000000000000815260040180806020018281038252602b8152602001807f596f752063616e206f6e6c792061636365707420612063757272656e746c792081526020017f76616c6964206f6666657200000000000000000000000000000000000000000081525060400191505060405180910390fd5b81600660009054906101000a900473ffffffffffffffffffffffffffffffffffffffff1673ffffffffffffffffffffffffffffffffffffffff1663dd62ed3e33306040518363ffffffff167c0100000000000000000000000000000000000000000000000000000000028152600401808373ffffffffffffffffffffffffffffffffffffffff1673ffffffffffffffffffffffffffffffffffffffff1681526020018273ffffffffffffffffffffffffffffffffffffffff1673ffffffffffffffffffffffffffffffffffffffff16815260200192505050602060405180830381600087803b158015610b0357600080fd5b505af1158015610b17573d6000803e3d6000fd5b505050506040513d6020811015610b2d57600080fd5b810190808051906020019092919050505010151515610bda576040517f08c379a000000000000000000000000000000000000000000000000000000000815260040180806020018281038252602d8152602001807f596f752068617665206e6f742070726f76696465642061636365737320746f2081526020017f656e6f75676820746f6b656e730000000000000000000000000000000000000081525060400191505060405180910390fd5b3360036000856000191660001916815260200190815260200160002060010160006101000a81548173ffffffffffffffffffffffffffffffffffffffff021916908373ffffffffffffffffffffffffffffffffffffffff160217905550610c418284611d46565b506001905092915050565b6000806000806000610c5c613150565b600360008960001916600019168152602001908152602001600020600c0187815481101515610c8757fe5b906000526020600020906005020160a060405190810160405290816000820154815260200160018201548152602001600282015481526020016003820154815260200160048201548152505090508060000151816020015182604001518360600151846080015195509550955095509550509295509295909350565b6000806000806000806000806000610d19613180565b600460008c6000191660001916815260200190815260200160002060009054906101000a900460ff161515610db6576040517f08c379a000000000000000000000000000000000000000000000000000000000815260040180806020018281038252601e8152602001807f506c656173652075736520612076616c696420636f6e7472616374204944000081525060200191505060405180910390fd5b600360008c600019166000191681526020019081526020016000206101c060405190810160405290816000820154600019166000191681526020016001820160009054906101000a900473ffffffffffffffffffffffffffffffffffffffff1673ffffffffffffffffffffffffffffffffffffffff1673ffffffffffffffffffffffffffffffffffffffff1681526020016002820160009054906101000a900473ffffffffffffffffffffffffffffffffffffffff1673ffffffffffffffffffffffffffffffffffffffff1673ffffffffffffffffffffffffffffffffffffffff1681526020016003820154815260200160048201548152602001600582015481526020016006820160009054906101000a900461ffff1661ffff1661ffff1681526020016006820160029054906101000a900461ffff1661ffff1661ffff168152602001600782015481526020016008820154815260200160098201548152602001600a820160009054906101000a900463ffffffff1663ffffffff1663ffffffff168152602001600b8201548152602001600c8201805480602002602001604051908101604052809291908181526020016000905b82821015610fd2578382906000526020600020906005020160a060405190810160405290816000820154815260200160018201548152602001600282015481526020016003820154815260200160048201548152505081526020019060010190610f6d565b505050508152505090508060200151816040015182606001518360a0015184608001518560c00151866101000151876101200151886101400151995099509950995099509950995099509950509193959799909294969850565b6000809054906101000a900473ffffffffffffffffffffffffffffffffffffffff1673ffffffffffffffffffffffffffffffffffffffff163373ffffffffffffffffffffffffffffffffffffffff1614151561108757600080fd5b6000809054906101000a900473ffffffffffffffffffffffffffffffffffffffff1673ffffffffffffffffffffffffffffffffffffffff167ff8df31144d9c2f0f6b59d69b8b98abd5459d07f2742c4df920b25aae33c6482060405160405180910390a260008060006101000a81548173ffffffffffffffffffffffffffffffffffffffff021916908373ffffffffffffffffffffffffffffffffffffffff160217905550565b6000809054906101000a900473ffffffffffffffffffffffffffffffffffffffff1681565b600061121e600160009054906101000a900473ffffffffffffffffffffffffffffffffffffffff1673ffffffffffffffffffffffffffffffffffffffff16637e1b4cb06040518163ffffffff167c0100000000000000000000000000000000000000000000000000000000028152600401602060405180830381600087803b1580156111de57600080fd5b505af11580156111f2573d6000803e3d6000fd5b505050506040513d602081101561120857600080fd5b8101908080519060200190929190505050610898565b905090565b600060046000836000191660001916815260200190815260200160002060009054906101000a900460ff1615156112e8576040517f08c379a00000000000000000000000000000000000000000000000000000000081526004018080602001828103825260268152602001807f596f752063616e206f6e6c792072656d617267696e20612076616c696420636f81526020017f6e7472616374000000000000000000000000000000000000000000000000000081525060400191505060405180910390fd5b6112f1826129f5565b5060019050919050565b6000600160009054906101000a900473ffffffffffffffffffffffffffffffffffffffff1673ffffffffffffffffffffffffffffffffffffffff1663f9f3e0356040518163ffffffff167c0100000000000000000000000000000000000000000000000000000000028152600401602060405180830381600087803b15801561138357600080fd5b505af1158015611397573d6000803e3d6000fd5b505050506040513d60208110156113ad57600080fd5b8101908080519060200190929190505050905090565b600082600260008673ffffffffffffffffffffffffffffffffffffffff1673ffffffffffffffffffffffffffffffffffffffff168152602001908152602001600020600301600082825401925050819055509392505050565b6000611426613180565b60046000846000191660001916815260200190815260200160002060009054906101000a900460ff1615156114c3576040517f08c379a000000000000000000000000000000000000000000000000000000000815260040180806020018281038252601e8152602001807f506c656173652075736520612076616c696420636f6e7472616374204944000081525060200191505060405180910390fd5b6003600084600019166000191681526020019081526020016000206101c060405190810160405290816000820154600019166000191681526020016001820160009054906101000a900473ffffffffffffffffffffffffffffffffffffffff1673ffffffffffffffffffffffffffffffffffffffff1673ffffffffffffffffffffffffffffffffffffffff1681526020016002820160009054906101000a900473ffffffffffffffffffffffffffffffffffffffff1673ffffffffffffffffffffffffffffffffffffffff1673ffffffffffffffffffffffffffffffffffffffff1681526020016003820154815260200160048201548152602001600582015481526020016006820160009054906101000a900461ffff1661ffff1661ffff1681526020016006820160029054906101000a900461ffff1661ffff1661ffff168152602001600782015481526020016008820154815260200160098201548152602001600a820160009054906101000a900463ffffffff1663ffffffff1663ffffffff168152602001600b8201548152602001600c8201805480602002602001604051908101604052809291908181526020016000905b828210156116df578382906000526020600020906005020160a06040519081016040529081600082015481526020016001820154815260200160028201548152602001600382015481526020016004820154815250508152602001906001019061167a565b50505050815250509050806020015173ffffffffffffffffffffffffffffffffffffffff163373ffffffffffffffffffffffffffffffffffffffff161415611a32578360036000856000191660001916815260200190815260200160002060080154101515156117dd576040517f08c379a00000000000000000000000000000000000000000000000000000000081526004018080602001828103825260328152602001807f596f752063616e206f6e6c7920776974686472617720616e20616d6f756e742081526020017f796f752068617665206465706f7369746564000000000000000000000000000081525060400191505060405180910390fd5b600660009054906101000a900473ffffffffffffffffffffffffffffffffffffffff1673ffffffffffffffffffffffffffffffffffffffff1663a9059cbb33866040518363ffffffff167c0100000000000000000000000000000000000000000000000000000000028152600401808373ffffffffffffffffffffffffffffffffffffffff1673ffffffffffffffffffffffffffffffffffffffff16815260200182815260200192505050602060405180830381600087803b1580156118a257600080fd5b505af11580156118b6573d6000803e3d6000fd5b505050506040513d60208110156118cc57600080fd5b81019080805190602001909291905050501515611951576040517f08c379a000000000000000000000000000000000000000000000000000000000815260040180806020018281038252601b8152602001807f546f6b656e207472616e73666572206d7573742073756363656564000000000081525060200191505060405180910390fd5b61199d600260003373ffffffffffffffffffffffffffffffffffffffff1673ffffffffffffffffffffffffffffffffffffffff1681526020019081526020016000206003015485612fd3565b600260003373ffffffffffffffffffffffffffffffffffffffff1673ffffffffffffffffffffffffffffffffffffffff16815260200190815260200160002060030181905550611a0b6003600085600019166000191681526020019081526020016000206008015485612fd3565b60036000856000191660001916815260200190815260200160002060080181905550611d3f565b836003600085600019166000191681526020019081526020016000206009015410151515611aee576040517f08c379a00000000000000000000000000000000000000000000000000000000081526004018080602001828103825260328152602001807f596f752063616e206f6e6c7920776974686472617720616e20616d6f756e742081526020017f796f752068617665206465706f7369746564000000000000000000000000000081525060400191505060405180910390fd5b600660009054906101000a900473ffffffffffffffffffffffffffffffffffffffff1673ffffffffffffffffffffffffffffffffffffffff1663a9059cbb33866040518363ffffffff167c0100000000000000000000000000000000000000000000000000000000028152600401808373ffffffffffffffffffffffffffffffffffffffff1673ffffffffffffffffffffffffffffffffffffffff16815260200182815260200192505050602060405180830381600087803b158015611bb357600080fd5b505af1158015611bc7573d6000803e3d6000fd5b505050506040513d6020811015611bdd57600080fd5b81019080805190602001909291905050501515611c62576040517f08c379a000000000000000000000000000000000000000000000000000000000815260040180806020018281038252601b8152602001807f546f6b656e207472616e73666572206d7573742073756363656564000000000081525060200191505060405180910390fd5b611cae600260003373ffffffffffffffffffffffffffffffffffffffff1673ffffffffffffffffffffffffffffffffffffffff1681526020019081526020016000206003015485612fd3565b600260003373ffffffffffffffffffffffffffffffffffffffff1673ffffffffffffffffffffffffffffffffffffffff16815260200190815260200160002060030181905550611d1c6003600085600019166000191681526020019081526020016000206009015485612fd3565b600360008560001916600019168152602001908152602001600020600901819055505b5092915050565b6000611d50613180565b60046000846000191660001916815260200190815260200160002060009054906101000a900460ff161515611ded576040517f08c379a000000000000000000000000000000000000000000000000000000000815260040180806020018281038252601e8152602001807f506c656173652075736520612076616c696420636f6e7472616374204944000081525060200191505060405180910390fd5b7fd80ebeb49a88fadb5ef8b540253fcf5b9f5ad633df71d5b79ad390afdbb1385f333086604051808473ffffffffffffffffffffffffffffffffffffffff1673ffffffffffffffffffffffffffffffffffffffff1681526020018373ffffffffffffffffffffffffffffffffffffffff1673ffffffffffffffffffffffffffffffffffffffff168152602001828152602001935050505060405180910390a1600660009054906101000a900473ffffffffffffffffffffffffffffffffffffffff1673ffffffffffffffffffffffffffffffffffffffff166323b872dd3330876040518463ffffffff167c0100000000000000000000000000000000000000000000000000000000028152600401808473ffffffffffffffffffffffffffffffffffffffff1673ffffffffffffffffffffffffffffffffffffffff1681526020018373ffffffffffffffffffffffffffffffffffffffff1673ffffffffffffffffffffffffffffffffffffffff1681526020018281526020019350505050602060405180830381600087803b158015611f8557600080fd5b505af1158015611f99573d6000803e3d6000fd5b505050506040513d6020811015611faf57600080fd5b81019080805190602001909291905050501515612034576040517f08c379a000000000000000000000000000000000000000000000000000000000815260040180806020018281038252601b8152602001807f546f6b656e207472616e73666572206d7573742073756363656564000000000081525060200191505060405180910390fd5b6003600084600019166000191681526020019081526020016000206101c060405190810160405290816000820154600019166000191681526020016001820160009054906101000a900473ffffffffffffffffffffffffffffffffffffffff1673ffffffffffffffffffffffffffffffffffffffff1673ffffffffffffffffffffffffffffffffffffffff1681526020016002820160009054906101000a900473ffffffffffffffffffffffffffffffffffffffff1673ffffffffffffffffffffffffffffffffffffffff1673ffffffffffffffffffffffffffffffffffffffff1681526020016003820154815260200160048201548152602001600582015481526020016006820160009054906101000a900461ffff1661ffff1661ffff1681526020016006820160029054906101000a900461ffff1661ffff1661ffff168152602001600782015481526020016008820154815260200160098201548152602001600a820160009054906101000a900463ffffffff1663ffffffff1663ffffffff168152602001600b8201548152602001600c8201805480602002602001604051908101604052809291908181526020016000905b82821015612250578382906000526020600020906005020160a0604051908101604052908160008201548152602001600182015481526020016002820154815260200160038201548152602001600482015481525050815260200190600101906121eb565b50505050815250509050806020015173ffffffffffffffffffffffffffffffffffffffff163373ffffffffffffffffffffffffffffffffffffffff1614156122e1576122ba6003600085600019166000191681526020019081526020016000206008015485612fec565b6003600085600019166000191681526020019081526020016000206008018190555061232c565b6123096003600085600019166000191681526020019081526020016000206009015485612fec565b600360008560001916600019168152602001908152602001600020600901819055505b612378600260003373ffffffffffffffffffffffffffffffffffffffff1673ffffffffffffffffffffffffffffffffffffffff1681526020019081526020016000206003015485612fec565b600260003373ffffffffffffffffffffffffffffffffffffffff1673ffffffffffffffffffffffffffffffffffffffff168152602001908152602001600020600301819055507f98e783c3864bbf744a057ef605a2a61701c3b62b5ed68b3745b99094497daf1f83856040518083600019166000191681526020018281526020019250505060405180910390a1600191505092915050565b6000806000600260008573ffffffffffffffffffffffffffffffffffffffff1673ffffffffffffffffffffffffffffffffffffffff1681526020019081526020016000209050806002015481600301549250925050915091565b60008060008060008061247b613150565b6000612485611153565b96506005546040518082815260200191505060405180910390209550620151808c0242019450603c8d02420193506124bd8988613008565b925060a060405190810160405280428152602001888152602001600081526020016000815260200160008152509150856003600088600019166000191681526020019081526020016000206000018160001916905550600060036000886000191660001916815260200190815260200160002060010160006101000a81548173ffffffffffffffffffffffffffffffffffffffff021916908373ffffffffffffffffffffffffffffffffffffffff1602179055503360036000886000191660001916815260200190815260200160002060020160006101000a81548173ffffffffffffffffffffffffffffffffffffffff021916908373ffffffffffffffffffffffffffffffffffffffff1602179055508660036000886000191660001916815260200190815260200160002060030181905550846003600088600019166000191681526020019081526020016000206004018190555042600360008860001916600019168152602001908152602001600020600501819055508a60036000886000191660001916815260200190815260200160002060060160006101000a81548161ffff021916908361ffff1602179055508960036000886000191660001916815260200190815260200160002060060160026101000a81548161ffff021916908361ffff16021790555060006003600088600019166000191681526020019081526020016000206008018190555060006003600088600019166000191681526020019081526020016000206009018190555082600360008860001916600019168152602001908152602001600020600701819055506001600360008860001916600019168152602001908152602001600020600a0160006101000a81548163ffffffff021916908363ffffffff16021790555083600360008860001916600019168152602001908152602001600020600b0181905550600360008760001916600019168152602001908152602001600020600c0182908060018154018082558091505090600182039060005260206000209060050201600090919290919091506000820151816000015560208201518160010155604082015181600201556060820151816003015560808201518160040155505050600160046000886000191660001916815260200190815260200160002060006101000a81548160ff021916908315150217905550600560008154809291906001019190505550600260003373ffffffffffffffffffffffffffffffffffffffff1673ffffffffffffffffffffffffffffffffffffffff168152602001908152602001600020600101869080600181540180825580915050906001820390600052602060002001600090919290919091509060001916905550600260003373ffffffffffffffffffffffffffffffffffffffff1673ffffffffffffffffffffffffffffffffffffffff1681526020019081526020016000206002016000815480929190600101919050555061292f61292461291b6129118c8b613008565b8d61ffff16613008565b620186a0613040565b6402540be400613008565b905061293b8187611d46565b507f60ea16e611deaec22d992e02267746362828fca13882a5d0dd11878eaa1812308660405180826000191660001916815260200191505060405180910390a18597505050505050505095945050505050565b6000809054906101000a900473ffffffffffffffffffffffffffffffffffffffff1673ffffffffffffffffffffffffffffffffffffffff163373ffffffffffffffffffffffffffffffffffffffff161415156129e957600080fd5b6129f281613056565b50565b600080612a00613180565b612a08613150565b6000806000806000612a18613150565b6000612a22611153565b9950600360008d600019166000191681526020019081526020016000206101c060405190810160405290816000820154600019166000191681526020016001820160009054906101000a900473ffffffffffffffffffffffffffffffffffffffff1673ffffffffffffffffffffffffffffffffffffffff1673ffffffffffffffffffffffffffffffffffffffff1681526020016002820160009054906101000a900473ffffffffffffffffffffffffffffffffffffffff1673ffffffffffffffffffffffffffffffffffffffff1673ffffffffffffffffffffffffffffffffffffffff1681526020016003820154815260200160048201548152602001600582015481526020016006820160009054906101000a900461ffff1661ffff1661ffff1681526020016006820160029054906101000a900461ffff1661ffff1661ffff168152602001600782015481526020016008820154815260200160098201548152602001600a820160009054906101000a900463ffffffff1663ffffffff1663ffffffff168152602001600b8201548152602001600c8201805480602002602001604051908101604052809291908181526020016000905b82821015612c40578382906000526020600020906005020160a060405190810160405290816000820154815260200160018201548152602001600282015481526020016003820154815260200160048201548152505081526020019060010190612bdb565b50505050815250509850600360008d60001916600019168152602001908152602001600020600c016001600360008f60001916600019168152602001908152602001600020600a0160009054906101000a900463ffffffff160363ffffffff16815481101515612cac57fe5b906000526020600020906005020160a0604051908101604052908160008201548152602001600182015481526020016002820154815260200160038201548152602001600482015481525050975087602001518a0396507f73a90aec9019337cd7696c0b2ca3ce431ea2fe8526cbfbdf27ac2f66e868079c876040518082815260200191505060405180910390a1612d4387610898565b9550612d6e612d67612d59618e9461016d613040565b8b60c0015161ffff16613008565b6001613040565b94507f3298b473c897701863a72ac6e7b3520d45529fdea2174f3294fe9d1016a8240f8587604051808381526020018281526020019250505060405180910390a1612dc7612dbc8787612fd3565b8a6101000151613008565b9350612dd7846305f5e100613040565b925060a0604051908101604052804281526020018b81526020018960400151815260200189606001518152602001848152509150600360008d60001916600019168152602001908152602001600020600c0182908060018154018082558091505090600182039060005260206000209060050201600090919290919091506000820151816000015560208201518160010155604082015181600201556060820151816003015560808201518160040155505050600360008d60001916600019168152602001908152602001600020600a01600081819054906101000a900463ffffffff168092919060010191906101000a81548163ffffffff021916908363ffffffff160217905550507fec33bc48af09208757bd088a445eacce3755e505c2ac739e05e6d0085ec087888c60405180826000191660001916815260200191505060405180910390a1612f4e612f43612f3b612f35876103e8613008565b8d613040565b6103e8613040565b6402540be400613008565b90507f12c5aba7cebed6f3965f3f1ea88b8b52d852c9f90c49cb13e9edebcc88453cea816040518082815260200191505060405180910390a16000871315612fac57808961014001511015612fa757612fa68c6107f3565b5b612fc4565b808961012001511015612fc357612fc28c6107f3565b5b5b50505050505050505050919050565b6000828211151515612fe157fe5b818303905092915050565b60008183019050828110151515612fff57fe5b80905092915050565b60008083141561301b576000905061303a565b818302905081838281151561302c57fe5b0414151561303657fe5b8090505b92915050565b6000818381151561304d57fe5b04905092915050565b600073ffffffffffffffffffffffffffffffffffffffff168173ffffffffffffffffffffffffffffffffffffffff161415151561309257600080fd5b8073ffffffffffffffffffffffffffffffffffffffff166000809054906101000a900473ffffffffffffffffffffffffffffffffffffffff1673ffffffffffffffffffffffffffffffffffffffff167f8be0079c531659141344cd1fd0a4f28419497f9722a3daafe3b4186f6b6457e060405160405180910390a3806000806101000a81548173ffffffffffffffffffffffffffffffffffffffff021916908373ffffffffffffffffffffffffffffffffffffffff16021790555050565b60a06040519081016040528060008152602001600081526020016000815260200160008152602001600081525090565b6101c06040519081016040528060008019168152602001600073ffffffffffffffffffffffffffffffffffffffff168152602001600073ffffffffffffffffffffffffffffffffffffffff168152602001600081526020016000815260200160008152602001600061ffff168152602001600061ffff168152602001600081526020016000815260200160008152602001600063ffffffff168152602001600081526020016060815250905600a165627a7a723058200abbdfbcb3bb3c528b3f09d7fc8d181d754248a64597bf11406f662657cfca470029",
  "source": "pragma solidity 0.4.24;\n\nimport \"chainlink/contracts/interfaces/AggregatorInterface.sol\";\nimport \"openzeppelin-solidity/contracts/ownership/Ownable.sol\";\nimport \"openzeppelin-solidity/contracts/Math/SafeMath.sol\";\n\n/**\n * @dev Interface of the ERC20 standard as defined in the EIP. Does not include\n * the optional functions; to access them see {ERC20Detailed}.\n */\ninterface IERC20 {\n    function totalSupply() external view returns (uint256);\n    function balanceOf(address account) external view returns (uint256);\n    function transfer(address recipient, uint256 amount) external returns (bool);\n    function allowance(address owner, address spender) external view returns (uint256);\n    function approve(address spender, uint256 amount) external returns (bool);\n    function transferFrom(address sender, address recipient, uint256 amount) external returns (bool);\n    event Transfer(address indexed from, address indexed to, uint256 value);\n    event Approval(address indexed owner, address indexed spender, uint256 value);\n}\n\ncontract LinkTRS is Ownable {\n    \n    //Struct for a user account\n    struct account {\n        address owner;\n        bytes32[] contracts;\n        uint256 numContracts;\n        uint256 deposited; //total cDAI deposited\n    }\n\n    struct npvCalcs {\n        uint256 date;\n        uint256 price;\n        uint256 takersMargin;\n        uint256 makersMargin;\n        uint256 npv; //change in npv\n    }\n\n    //Struct for a contract\n    struct trsContract {\n        bytes32 id;\n        address takerAddress;\n        address makerAddress;\n        uint256 originalPrice;\n        uint256 expiryDate;\n        uint256 startDate;\n        uint16 interest;\n        uint16 requiredMargin;\n        uint256 originalValue;\n        uint256 takersMargin;\n        uint256 makersMargin;\n        uint32 numNPV;\n        uint256 offerExpiryDate;\n        npvCalcs[] npvs;\n    }\n\n    event ContractCreated(bytes32 contractID);\n    event Liquidate(bytes32 _contractID);\n    event Deposit(bytes32 _contractID, uint amount);\n    event npvUpdated(bytes32 contractID);\n    event priceChangeEvent(int priceChange);\n    event AttemptTransfer(address from, address to, uint value);\n    event TestEmit(uint interest, uint priceDiff);\n    event amountToPay(uint tokens);\n\n    AggregatorInterface internal reference;\n    mapping(address => account) users;\n    mapping (bytes32 => trsContract) contracts;\n    mapping (bytes32 => bool) validContracts;\n    uint256 contractCounter;\n    IERC20 token;\n\n    constructor(address tokenAddress, address _aggregator) public {\n        reference = AggregatorInterface(_aggregator);\n        token = IERC20(tokenAddress);\n    }\n\n    /**\n    * Gets the latest price from the reference data contract\n    */\n    function getLatestPrice() public view returns (uint256) {\n        return abs(reference.currentAnswer());\n    }\n\n    /**\n    * Gets the last updated block height from the reference data contract\n    */\n    function getLatestUpdateHeight() public view returns (uint256) {\n        return reference.updatedHeight();\n    }\n\n    /**\n    * Allows users to deposit LINK to the contract\n    */\n    function onTokenTransfer(address from, uint256 amount, bytes data) public returns (bool success) {\n        users[from].deposited += amount;\n    }\n\n    function createContract(uint256 timeToLive, uint256 length, uint16 interest, uint16 requiredMargin, uint256 amountOfLink) public returns (bytes32) {        \n        //Pull required info\n        uint256 price = getLatestPrice(); //price (x 10^9)\n        //uint256 scaledPrice = SafeMath.div(price, 1000000); //this converts it to price ($ x 1000) eg $1.24 = 1240\n        bytes32 contractID = keccak256(contractCounter);\n        uint256 expiryDate = now + length * 1 days;\n        uint256 offerExpiryDate = now + timeToLive * 1 minutes;\n        //uint256 value = SafeMath.mul(amountOfLink, scaledPrice);\n        uint256 value = SafeMath.mul(amountOfLink, price);\n        //Create initial npv entry\n        npvCalcs memory npvEntry = npvCalcs(now, price, 0, 0, 0);\n\n        //Create contract\n        contracts[contractID].id = contractID;\n        contracts[contractID].takerAddress = address(0);\n        contracts[contractID].makerAddress = msg.sender;\n        contracts[contractID].originalPrice = price;\n        contracts[contractID].expiryDate = expiryDate;\n        contracts[contractID].startDate = now;\n        contracts[contractID].interest = interest;\n        contracts[contractID].requiredMargin = requiredMargin;\n        contracts[contractID].takersMargin = 0;\n        contracts[contractID].makersMargin = 0;\n        contracts[contractID].originalValue = value;\n        contracts[contractID].numNPV = 1;\n        contracts[contractID].offerExpiryDate = offerExpiryDate;\n        contracts[contractID].npvs.push(npvEntry);\n        validContracts[contractID] = true;\n        contractCounter++;\n\n        //Update user info\n        users[msg.sender].contracts.push(contractID);\n        users[msg.sender].numContracts++;\n\n        //Deposit into makers margin account. Mul by 10000000000 to convert to tokens amount (10^18)\n        uint tokensToDeposit = SafeMath.mul(SafeMath.div(SafeMath.mul(SafeMath.mul(amountOfLink, price), requiredMargin), 100000), 10000000000);\n        deposit(tokensToDeposit, contractID);\n\n        emit ContractCreated(contractID);\n        return contractID;\n    }\n\n    function joinContract(bytes32 _contractID, uint256 tokensToDeposit) public returns(bool) {\n        require(validContracts[_contractID], \"Please use a valid contract ID\");\n        require(now <= contracts[_contractID].offerExpiryDate, \"You can only accept a currently valid offer\");\n        //Require the user to transfer the required margin\n        require(token.allowance(msg.sender, address(this)) >= tokensToDeposit, \"You have not provided access to enough tokens\");\n        //Deposit into makers margin account. Mul by 10000000000 to convert to tokens amount (10^18)\n        contracts[_contractID].takerAddress = msg.sender;\n        deposit(tokensToDeposit, _contractID);\n        return true;\n    }\n\n    function getUserContract(uint i) public view returns(bytes32) {\n        return users[msg.sender].contracts[i];\n    }\n\n    function getContractByIndex(uint index) public view returns (address, address, uint256, uint256, uint256, \n    uint16, uint256, uint256, uint256) {\n        return getContractInfo(keccak256(index));\n    }\n\n    function getContractInfo(bytes32 _contractID) public view returns (address, address, uint256, uint256, uint256, \n    uint16, uint256, uint256, uint256) {\n        require(validContracts[_contractID], \"Please use a valid contract ID\");\n        trsContract memory _contract = contracts[_contractID];\n        return (_contract.takerAddress, _contract.makerAddress, _contract.originalPrice, _contract.startDate,\n             _contract.expiryDate, _contract.interest, _contract.originalValue, _contract.takersMargin, _contract.makersMargin);\n    }\n\n    function getContractNPV(bytes32 _contractID, uint i) public view returns (uint256, uint256, uint256, uint256, uint256) {\n        npvCalcs memory thisNPV = contracts[_contractID].npvs[i];\n        return (thisNPV.date, thisNPV.price, thisNPV.takersMargin, thisNPV.makersMargin, thisNPV.npv);\n    }\n\n    /**\n    * Function for calculating the NPV at a given point in time for a specific contract.\n    * @dev requires the starting state for the NVP array to be intilized (when contract is created)\n    */\n    function calcNPV(bytes32 _contractId) internal returns (bool) {\n        //Calc npv\n        uint256 price = getLatestPrice(); //price * 10^9\n        //uint256 scaledPrice = SafeMath.div(price, 1000000); //this converts it to price ($ x 1000) eg $1.24 = 1240\n\n        trsContract memory _contract = contracts[_contractId];\n\n        npvCalcs memory lastNPV = contracts[_contractId].npvs[contracts[_contractId].numNPV - 1];\n        int256 priceChange = (int256)(price - lastNPV.price);\n        emit priceChangeEvent(priceChange);\n        uint256 absPriceChange = abs(priceChange);\n        //uint256 timeChange = SafeMath.div(SafeMath.sub(now + 31536000, lastNPV.date), 86400); //for testing pretend a year has past\n        //Interest is represented as percent x 1000 (i.e 5.5% = 5500)\n        uint256 interestPercent = SafeMath.div(SafeMath.mul(SafeMath.div(36500, 365), _contract.interest), 1);\n\n        //At this point, price diff is (price diff) * 10^7 and interest is % * 10^2. Want percent as a decimal * 10^7 (i.e % in 10^)\n        //eg (5.5% should be 0.05500 * 10^7 = 5500 * 10^2)\n        emit TestEmit(interestPercent, absPriceChange);\n        uint256 npv = SafeMath.mul(SafeMath.sub(absPriceChange,interestPercent),\n            _contract.originalValue);\n        //this is to account for the fact that the price is increased this much before being written on chain\n        uint256 scaledNpv = SafeMath.div(npv, 100000000); //remove excess from interest being x1000\n        \n        // //TODO incoperate margin changes here\n        npvCalcs memory thisCalc = npvCalcs(now, price, lastNPV.takersMargin, lastNPV.makersMargin, scaledNpv);\n        contracts[_contractId].npvs.push(thisCalc);\n        contracts[_contractId].numNPV++;\n\n        emit npvUpdated(_contractId);\n\n        //TODO Calc amount of tokens to transfer\n        //npv is excess to pay in $x.xx * 10^8.\n        uint amountOfTokens = SafeMath.mul(SafeMath.div(SafeMath.div(SafeMath.mul(npv,1000),price), 1000), 10000000000);\n        //Now to convert to tokens (which are in 10^18), we need to multiply by 10^11 (since we are currently working in 10^9)\n        emit amountToPay(amountOfTokens);\n\n        if(priceChange > 0) {\n            //Price has gone up, transfer from maker margin to taker margin\n            if (_contract.makersMargin < amountOfTokens) {\n                liquidate(_contractId);\n            }\n        } else {\n            //Price has gone down, transfer from taker margin to maker margin\n            if (_contract.takersMargin < amountOfTokens) {\n                liquidate(_contractId);\n            }\n           //return npvCalcs(now, price, lastNPV.takersMargin, lastNPV.makersMargin, npv);\n        }\n    }\n\n    /**\n    * Function for recalculating contract terms and the margin accounts for a set contract\n    */\n    function remargin(bytes32 _contractId) public returns(bool) {\n        require(validContracts[_contractId], \"You can only remargin a valid contract\");\n        calcNPV(_contractId);\n        return true;\n    }\n\n    /**\n    * Function for liquidating a contract\n    */\n    function liquidate(bytes32 _contractId) public {\n        emit Liquidate(_contractId);\n        return;\n    }\n\n    function abs(int256 num) public returns (uint256) {\n        if (num < 0) {\n            return (uint256)(-num);\n        } else {\n            return (uint256)(num);\n        }\n    }\n\n    /**\n    * Allows a user to deposit tokens onto the platform\n    */\n    function deposit(uint value, bytes32 _contractID) public returns (bool) {\n        require(validContracts[_contractID], \"Please use a valid contract ID\");\n        emit AttemptTransfer(msg.sender, address(this), value);\n        require(token.transferFrom(msg.sender, address(this), value), \"Token transfer must succeed\");\n        trsContract memory _contract = contracts[_contractID];\n        if (msg.sender == _contract.takerAddress) {\n            contracts[_contractID].takersMargin = SafeMath.add(contracts[_contractID].takersMargin, value);\n        } else {\n            contracts[_contractID].makersMargin = SafeMath.add(contracts[_contractID].makersMargin, value);\n        }\n        users[msg.sender].deposited = SafeMath.add(users[msg.sender].deposited, value);\n        emit Deposit(_contractID, value);\n        return true;\n    }\n\n    function withdraw(uint value, bytes32 _contractID) public returns(bool) {\n        require(validContracts[_contractID], \"Please use a valid contract ID\");\n        trsContract memory _contract = contracts[_contractID];\n        if (msg.sender == _contract.takerAddress) {\n            require(contracts[_contractID].takersMargin >= value, \"You can only withdraw an amount you have deposited\");\n            //TODO two party vote to withdraw\n            require(token.transfer(msg.sender, value), \"Token transfer must succeed\");\n            //Decrement amount\n            users[msg.sender].deposited = SafeMath.sub(users[msg.sender].deposited, value);\n            contracts[_contractID].takersMargin = SafeMath.sub(contracts[_contractID].takersMargin, value);\n        } else {\n            require(contracts[_contractID].makersMargin >= value, \"You can only withdraw an amount you have deposited\");\n            //TODO two party vote to withdraw\n            require(token.transfer(msg.sender, value), \"Token transfer must succeed\");\n            //Decrement amount\n            users[msg.sender].deposited = SafeMath.sub(users[msg.sender].deposited, value);\n            contracts[_contractID].makersMargin = SafeMath.sub(contracts[_contractID].makersMargin, value);\n        }\n    }\n\n    function getUserDetails(address _user) public returns(uint256, uint256) {\n        account user = users[_user];\n        return (user.numContracts, user.deposited);\n    }\n\n}",
  "sourcePath": "/Users/raymogg/dev/SDL/LinkTRS/contracts/LinkTRS.sol",
  "compiler": {
    "name": "solc",
    "version": "0.4.24+commit.e67f0147.Emscripten.clang"
  },
  "schemaVersion": "3.0.2",
  "updatedAt": "2019-10-29T02:09:09.444Z",
  "devdoc": {
    "methods": {
      "renounceOwnership()": {
        "details": "Allows the current owner to relinquish control of the contract."
      },
      "transferOwnership(address)": {
        "details": "Allows the current owner to transfer control of the contract to a newOwner.",
        "params": {
          "_newOwner": "The address to transfer ownership to."
        }
      }
    }
  },
  "userdoc": {
    "methods": {
      "deposit(uint256,bytes32)": {
        "notice": "Allows a user to deposit tokens onto the platform"
      },
      "getLatestPrice()": {
        "notice": "Gets the latest price from the reference data contract"
      },
      "getLatestUpdateHeight()": {
        "notice": "Gets the last updated block height from the reference data contract"
      },
      "liquidate(bytes32)": {
        "notice": "Function for liquidating a contract"
      },
      "onTokenTransfer(address,uint256,bytes)": {
        "notice": "Allows users to deposit LINK to the contract"
      },
      "remargin(bytes32)": {
        "notice": "Function for recalculating contract terms and the margin accounts for a set contract"
      },
      "renounceOwnership()": {
        "notice": "Renouncing to ownership will leave the contract without an owner. It will not be possible to call the functions with the `onlyOwner` modifier anymore."
      }
    }
  }
}