{
  "contractName": "LinkTRS",
  "abi": [
    {
      "constant": true,
      "inputs": [],
      "name": "contractCounter",
      "outputs": [
        {
          "name": "",
          "type": "uint256"
        }
      ],
      "payable": false,
      "stateMutability": "view",
      "type": "function"
    },
    {
      "constant": false,
      "inputs": [],
      "name": "renounceOwnership",
      "outputs": [],
      "payable": false,
      "stateMutability": "nonpayable",
      "type": "function"
    },
    {
      "constant": true,
      "inputs": [],
      "name": "owner",
      "outputs": [
        {
          "name": "",
          "type": "address"
        }
      ],
      "payable": false,
      "stateMutability": "view",
      "type": "function"
    },
    {
      "constant": false,
      "inputs": [
        {
          "name": "_newOwner",
          "type": "address"
        }
      ],
      "name": "transferOwnership",
      "outputs": [],
      "payable": false,
      "stateMutability": "nonpayable",
      "type": "function"
    },
    {
      "inputs": [
        {
          "name": "tokenAddress",
          "type": "address"
        },
        {
          "name": "_aggregator",
          "type": "address"
        }
      ],
      "payable": false,
      "stateMutability": "nonpayable",
      "type": "constructor"
    },
    {
      "anonymous": false,
      "inputs": [
        {
          "indexed": false,
          "name": "contractID",
          "type": "bytes32"
        }
      ],
      "name": "ContractCreated",
      "type": "event"
    },
    {
      "anonymous": false,
      "inputs": [
        {
          "indexed": false,
          "name": "_contractID",
          "type": "bytes32"
        }
      ],
      "name": "Liquidate",
      "type": "event"
    },
    {
      "anonymous": false,
      "inputs": [
        {
          "indexed": false,
          "name": "_contractID",
          "type": "bytes32"
        },
        {
          "indexed": false,
          "name": "amount",
          "type": "uint256"
        }
      ],
      "name": "Deposit",
      "type": "event"
    },
    {
      "anonymous": false,
      "inputs": [
        {
          "indexed": false,
          "name": "contractID",
          "type": "bytes32"
        }
      ],
      "name": "npvUpdated",
      "type": "event"
    },
    {
      "anonymous": false,
      "inputs": [
        {
          "indexed": false,
          "name": "priceChange",
          "type": "int256"
        }
      ],
      "name": "priceChangeEvent",
      "type": "event"
    },
    {
      "anonymous": false,
      "inputs": [
        {
          "indexed": false,
          "name": "from",
          "type": "address"
        },
        {
          "indexed": false,
          "name": "to",
          "type": "address"
        },
        {
          "indexed": false,
          "name": "value",
          "type": "uint256"
        }
      ],
      "name": "AttemptTransfer",
      "type": "event"
    },
    {
      "anonymous": false,
      "inputs": [
        {
          "indexed": false,
          "name": "interest",
          "type": "uint256"
        },
        {
          "indexed": false,
          "name": "priceDiff",
          "type": "uint256"
        }
      ],
      "name": "TestEmit",
      "type": "event"
    },
    {
      "anonymous": false,
      "inputs": [
        {
          "indexed": false,
          "name": "tokens",
          "type": "uint256"
        }
      ],
      "name": "amountToPay",
      "type": "event"
    },
    {
      "anonymous": false,
      "inputs": [
        {
          "indexed": true,
          "name": "previousOwner",
          "type": "address"
        }
      ],
      "name": "OwnershipRenounced",
      "type": "event"
    },
    {
      "anonymous": false,
      "inputs": [
        {
          "indexed": true,
          "name": "previousOwner",
          "type": "address"
        },
        {
          "indexed": true,
          "name": "newOwner",
          "type": "address"
        }
      ],
      "name": "OwnershipTransferred",
      "type": "event"
    },
    {
      "constant": true,
      "inputs": [],
      "name": "getLatestPrice",
      "outputs": [
        {
          "name": "",
          "type": "uint256"
        }
      ],
      "payable": false,
      "stateMutability": "view",
      "type": "function"
    },
    {
      "constant": true,
      "inputs": [],
      "name": "getLatestUpdateHeight",
      "outputs": [
        {
          "name": "",
          "type": "uint256"
        }
      ],
      "payable": false,
      "stateMutability": "view",
      "type": "function"
    },
    {
      "constant": false,
      "inputs": [
        {
          "name": "from",
          "type": "address"
        },
        {
          "name": "amount",
          "type": "uint256"
        },
        {
          "name": "data",
          "type": "bytes"
        }
      ],
      "name": "onTokenTransfer",
      "outputs": [
        {
          "name": "success",
          "type": "bool"
        }
      ],
      "payable": false,
      "stateMutability": "nonpayable",
      "type": "function"
    },
    {
      "constant": false,
      "inputs": [
        {
          "name": "timeToLive",
          "type": "uint256"
        },
        {
          "name": "length",
          "type": "uint256"
        },
        {
          "name": "interest",
          "type": "uint16"
        },
        {
          "name": "requiredMargin",
          "type": "uint16"
        },
        {
          "name": "amountOfLink",
          "type": "uint256"
        }
      ],
      "name": "createContract",
      "outputs": [
        {
          "name": "",
          "type": "bytes32"
        }
      ],
      "payable": false,
      "stateMutability": "nonpayable",
      "type": "function"
    },
    {
      "constant": false,
      "inputs": [
        {
          "name": "_contractID",
          "type": "bytes32"
        },
        {
          "name": "tokensToDeposit",
          "type": "uint256"
        }
      ],
      "name": "joinContract",
      "outputs": [
        {
          "name": "",
          "type": "bool"
        }
      ],
      "payable": false,
      "stateMutability": "nonpayable",
      "type": "function"
    },
    {
      "constant": true,
      "inputs": [
        {
          "name": "i",
          "type": "uint256"
        }
      ],
      "name": "getUserContract",
      "outputs": [
        {
          "name": "",
          "type": "bytes32"
        }
      ],
      "payable": false,
      "stateMutability": "view",
      "type": "function"
    },
    {
      "constant": true,
      "inputs": [
        {
          "name": "index",
          "type": "uint256"
        }
      ],
      "name": "getContractByIndex",
      "outputs": [
        {
          "name": "",
          "type": "address"
        },
        {
          "name": "",
          "type": "address"
        },
        {
          "name": "",
          "type": "uint256"
        },
        {
          "name": "",
          "type": "uint256"
        },
        {
          "name": "",
          "type": "uint256"
        },
        {
          "name": "",
          "type": "uint16"
        },
        {
          "name": "",
          "type": "uint256"
        },
        {
          "name": "",
          "type": "uint256"
        },
        {
          "name": "",
          "type": "uint256"
        }
      ],
      "payable": false,
      "stateMutability": "view",
      "type": "function"
    },
    {
      "constant": true,
      "inputs": [
        {
          "name": "_contractID",
          "type": "bytes32"
        }
      ],
      "name": "getContractInfo",
      "outputs": [
        {
          "name": "",
          "type": "address"
        },
        {
          "name": "",
          "type": "address"
        },
        {
          "name": "",
          "type": "uint256"
        },
        {
          "name": "",
          "type": "uint256"
        },
        {
          "name": "",
          "type": "uint256"
        },
        {
          "name": "",
          "type": "uint16"
        },
        {
          "name": "",
          "type": "uint256"
        },
        {
          "name": "",
          "type": "uint256"
        },
        {
          "name": "",
          "type": "uint256"
        }
      ],
      "payable": false,
      "stateMutability": "view",
      "type": "function"
    },
    {
      "constant": true,
      "inputs": [
        {
          "name": "_contractID",
          "type": "bytes32"
        },
        {
          "name": "i",
          "type": "uint256"
        }
      ],
      "name": "getContractNPV",
      "outputs": [
        {
          "name": "",
          "type": "uint256"
        },
        {
          "name": "",
          "type": "uint256"
        },
        {
          "name": "",
          "type": "uint256"
        },
        {
          "name": "",
          "type": "uint256"
        },
        {
          "name": "",
          "type": "uint256"
        }
      ],
      "payable": false,
      "stateMutability": "view",
      "type": "function"
    },
    {
      "constant": false,
      "inputs": [
        {
          "name": "_contractId",
          "type": "bytes32"
        }
      ],
      "name": "remargin",
      "outputs": [
        {
          "name": "",
          "type": "bool"
        }
      ],
      "payable": false,
      "stateMutability": "nonpayable",
      "type": "function"
    },
    {
      "constant": false,
      "inputs": [
        {
          "name": "_contractId",
          "type": "bytes32"
        }
      ],
      "name": "liquidate",
      "outputs": [],
      "payable": false,
      "stateMutability": "nonpayable",
      "type": "function"
    },
    {
      "constant": false,
      "inputs": [
        {
          "name": "num",
          "type": "int256"
        }
      ],
      "name": "abs",
      "outputs": [
        {
          "name": "",
          "type": "uint256"
        }
      ],
      "payable": false,
      "stateMutability": "nonpayable",
      "type": "function"
    },
    {
      "constant": false,
      "inputs": [
        {
          "name": "value",
          "type": "uint256"
        },
        {
          "name": "_contractID",
          "type": "bytes32"
        }
      ],
      "name": "deposit",
      "outputs": [
        {
          "name": "",
          "type": "bool"
        }
      ],
      "payable": false,
      "stateMutability": "nonpayable",
      "type": "function"
    },
    {
      "constant": false,
      "inputs": [
        {
          "name": "value",
          "type": "uint256"
        },
        {
          "name": "_contractID",
          "type": "bytes32"
        }
      ],
      "name": "withdraw",
      "outputs": [
        {
          "name": "",
          "type": "bool"
        }
      ],
      "payable": false,
      "stateMutability": "nonpayable",
      "type": "function"
    },
    {
      "constant": false,
      "inputs": [
        {
          "name": "_user",
          "type": "address"
        }
      ],
      "name": "getUserDetails",
      "outputs": [
        {
          "name": "",
          "type": "uint256"
        },
        {
          "name": "",
          "type": "uint256"
        }
      ],
      "payable": false,
      "stateMutability": "nonpayable",
      "type": "function"
    }
  ],
  "bytecode": "0x608060405234801561001057600080fd5b506040516040806133a58339810180604052810190808051906020019092919080519060200190929190505050336000806101000a81548173ffffffffffffffffffffffffffffffffffffffff021916908373ffffffffffffffffffffffffffffffffffffffff16021790555080600160006101000a81548173ffffffffffffffffffffffffffffffffffffffff021916908373ffffffffffffffffffffffffffffffffffffffff16021790555081600660006101000a81548173ffffffffffffffffffffffffffffffffffffffff021916908373ffffffffffffffffffffffffffffffffffffffff1602179055505050613295806101106000396000f300608060405260043610610107576000357c0100000000000000000000000000000000000000000000000000000000900463ffffffff1680630264a1011461010c578063067bd3b4146101e55780630a71096e14610210578063193fc8e6146102415780631b5ac4b51461028a57806348268381146102cb57806353d1b1901461031e578063613e2de214610389578063715018a6146104665780638da5cb5b1461047d5780638e15f473146104d457806392e730d7146104ff5780639993d66914610548578063a4c0ed3614610573578063a8d2021a1461061e578063c9630cb014610671578063cc3d967b146106c4578063de4a21ba14610722578063f2fde38b1461079b575b600080fd5b34801561011857600080fd5b50610137600480360381019080803590602001909291905050506107de565b604051808a73ffffffffffffffffffffffffffffffffffffffff1673ffffffffffffffffffffffffffffffffffffffff1681526020018973ffffffffffffffffffffffffffffffffffffffff1673ffffffffffffffffffffffffffffffffffffffff1681526020018881526020018781526020018681526020018561ffff1661ffff168152602001848152602001838152602001828152602001995050505050505050505060405180910390f35b3480156101f157600080fd5b506101fa610829565b6040518082815260200191505060405180910390f35b34801561021c57600080fd5b5061023f600480360381019080803560001916906020019092919050505061082f565b005b34801561024d57600080fd5b5061026c60048036038101908080359060200190929190505050610871565b60405180826000191660001916815260200191505060405180910390f35b34801561029657600080fd5b506102b5600480360381019080803590602001909291905050506108d4565b6040518082815260200191505060405180910390f35b3480156102d757600080fd5b506103046004803603810190808035600019169060200190929190803590602001909291905050506108f2565b604051808215151515815260200191505060405180910390f35b34801561032a57600080fd5b50610357600480360381019080803560001916906020019092919080359060200190929190505050610c88565b604051808681526020018581526020018481526020018381526020018281526020019550505050505060405180910390f35b34801561039557600080fd5b506103b86004803603810190808035600019169060200190929190505050610d3f565b604051808a73ffffffffffffffffffffffffffffffffffffffff1673ffffffffffffffffffffffffffffffffffffffff1681526020018973ffffffffffffffffffffffffffffffffffffffff1673ffffffffffffffffffffffffffffffffffffffff1681526020018881526020018781526020018681526020018561ffff1661ffff168152602001848152602001838152602001828152602001995050505050505050505060405180910390f35b34801561047257600080fd5b5061047b611068565b005b34801561048957600080fd5b5061049261116a565b604051808273ffffffffffffffffffffffffffffffffffffffff1673ffffffffffffffffffffffffffffffffffffffff16815260200191505060405180910390f35b3480156104e057600080fd5b506104e961118f565b6040518082815260200191505060405180910390f35b34801561050b57600080fd5b5061052e600480360381019080803560001916906020019092919050505061125f565b604051808215151515815260200191505060405180910390f35b34801561055457600080fd5b5061055d611337565b6040518082815260200191505060405180910390f35b34801561057f57600080fd5b50610604600480360381019080803573ffffffffffffffffffffffffffffffffffffffff16906020019092919080359060200190929190803590602001908201803590602001908080601f01602080910402602001604051908101604052809392919081815260200183838082843782019150505050505091929192905050506113ff565b604051808215151515815260200191505060405180910390f35b34801561062a57600080fd5b50610657600480360381019080803590602001909291908035600019169060200190929190505050611458565b604051808215151515815260200191505060405180910390f35b34801561067d57600080fd5b506106aa600480360381019080803590602001909291908035600019169060200190929190505050611d82565b604051808215151515815260200191505060405180910390f35b3480156106d057600080fd5b50610705600480360381019080803573ffffffffffffffffffffffffffffffffffffffff16906020019092919050505061244c565b604051808381526020018281526020019250505060405180910390f35b34801561072e57600080fd5b5061077d6004803603810190808035906020019092919080359060200190929190803561ffff169060200190929190803561ffff169060200190929190803590602001909291905050506124a6565b60405180826000191660001916815260200191505060405180910390f35b3480156107a757600080fd5b506107dc600480360381019080803573ffffffffffffffffffffffffffffffffffffffff1690602001909291905050506129ca565b005b600080600080600080600080600061080a8a604051808281526020019150506040518091039020610d3f565b9850985098509850985098509850985098509193959799909294969850565b60055481565b7f49402ac80e80185fec1d9f8b8360275213386717f39afd886549219d1f0c17d38160405180826000191660001916815260200191505060405180910390a150565b6000600260003373ffffffffffffffffffffffffffffffffffffffff1673ffffffffffffffffffffffffffffffffffffffff168152602001908152602001600020600101828154811015156108c257fe5b90600052602060002001549050919050565b6000808212156108e9578160000390506108ed565b8190505b919050565b600060046000846000191660001916815260200190815260200160002060009054906101000a900460ff161515610991576040517f08c379a000000000000000000000000000000000000000000000000000000000815260040180806020018281038252601e8152602001807f506c656173652075736520612076616c696420636f6e7472616374204944000081525060200191505060405180910390fd5b600360008460001916600019168152602001908152602001600020600b01544211151515610a4d576040517f08c379a000000000000000000000000000000000000000000000000000000000815260040180806020018281038252602b8152602001807f596f752063616e206f6e6c792061636365707420612063757272656e746c792081526020017f76616c6964206f6666657200000000000000000000000000000000000000000081525060400191505060405180910390fd5b81600660009054906101000a900473ffffffffffffffffffffffffffffffffffffffff1673ffffffffffffffffffffffffffffffffffffffff1663dd62ed3e33306040518363ffffffff167c0100000000000000000000000000000000000000000000000000000000028152600401808373ffffffffffffffffffffffffffffffffffffffff1673ffffffffffffffffffffffffffffffffffffffff1681526020018273ffffffffffffffffffffffffffffffffffffffff1673ffffffffffffffffffffffffffffffffffffffff16815260200192505050602060405180830381600087803b158015610b3f57600080fd5b505af1158015610b53573d6000803e3d6000fd5b505050506040513d6020811015610b6957600080fd5b810190808051906020019092919050505010151515610c16576040517f08c379a000000000000000000000000000000000000000000000000000000000815260040180806020018281038252602d8152602001807f596f752068617665206e6f742070726f76696465642061636365737320746f2081526020017f656e6f75676820746f6b656e730000000000000000000000000000000000000081525060400191505060405180910390fd5b3360036000856000191660001916815260200190815260200160002060010160006101000a81548173ffffffffffffffffffffffffffffffffffffffff021916908373ffffffffffffffffffffffffffffffffffffffff160217905550610c7d8284611d82565b506001905092915050565b6000806000806000610c9861318c565b600360008960001916600019168152602001908152602001600020600c0187815481101515610cc357fe5b906000526020600020906005020160a060405190810160405290816000820154815260200160018201548152602001600282015481526020016003820154815260200160048201548152505090508060000151816020015182604001518360600151846080015195509550955095509550509295509295909350565b6000806000806000806000806000610d556131bc565b600460008c6000191660001916815260200190815260200160002060009054906101000a900460ff161515610df2576040517f08c379a000000000000000000000000000000000000000000000000000000000815260040180806020018281038252601e8152602001807f506c656173652075736520612076616c696420636f6e7472616374204944000081525060200191505060405180910390fd5b600360008c600019166000191681526020019081526020016000206101c060405190810160405290816000820154600019166000191681526020016001820160009054906101000a900473ffffffffffffffffffffffffffffffffffffffff1673ffffffffffffffffffffffffffffffffffffffff1673ffffffffffffffffffffffffffffffffffffffff1681526020016002820160009054906101000a900473ffffffffffffffffffffffffffffffffffffffff1673ffffffffffffffffffffffffffffffffffffffff1673ffffffffffffffffffffffffffffffffffffffff1681526020016003820154815260200160048201548152602001600582015481526020016006820160009054906101000a900461ffff1661ffff1661ffff1681526020016006820160029054906101000a900461ffff1661ffff1661ffff168152602001600782015481526020016008820154815260200160098201548152602001600a820160009054906101000a900463ffffffff1663ffffffff1663ffffffff168152602001600b8201548152602001600c8201805480602002602001604051908101604052809291908181526020016000905b8282101561100e578382906000526020600020906005020160a060405190810160405290816000820154815260200160018201548152602001600282015481526020016003820154815260200160048201548152505081526020019060010190610fa9565b505050508152505090508060200151816040015182606001518360a0015184608001518560c00151866101000151876101200151886101400151995099509950995099509950995099509950509193959799909294969850565b6000809054906101000a900473ffffffffffffffffffffffffffffffffffffffff1673ffffffffffffffffffffffffffffffffffffffff163373ffffffffffffffffffffffffffffffffffffffff161415156110c357600080fd5b6000809054906101000a900473ffffffffffffffffffffffffffffffffffffffff1673ffffffffffffffffffffffffffffffffffffffff167ff8df31144d9c2f0f6b59d69b8b98abd5459d07f2742c4df920b25aae33c6482060405160405180910390a260008060006101000a81548173ffffffffffffffffffffffffffffffffffffffff021916908373ffffffffffffffffffffffffffffffffffffffff160217905550565b6000809054906101000a900473ffffffffffffffffffffffffffffffffffffffff1681565b600061125a600160009054906101000a900473ffffffffffffffffffffffffffffffffffffffff1673ffffffffffffffffffffffffffffffffffffffff16637e1b4cb06040518163ffffffff167c0100000000000000000000000000000000000000000000000000000000028152600401602060405180830381600087803b15801561121a57600080fd5b505af115801561122e573d6000803e3d6000fd5b505050506040513d602081101561124457600080fd5b81019080805190602001909291905050506108d4565b905090565b600060046000836000191660001916815260200190815260200160002060009054906101000a900460ff161515611324576040517f08c379a00000000000000000000000000000000000000000000000000000000081526004018080602001828103825260268152602001807f596f752063616e206f6e6c792072656d617267696e20612076616c696420636f81526020017f6e7472616374000000000000000000000000000000000000000000000000000081525060400191505060405180910390fd5b61132d82612a31565b5060019050919050565b6000600160009054906101000a900473ffffffffffffffffffffffffffffffffffffffff1673ffffffffffffffffffffffffffffffffffffffff1663f9f3e0356040518163ffffffff167c0100000000000000000000000000000000000000000000000000000000028152600401602060405180830381600087803b1580156113bf57600080fd5b505af11580156113d3573d6000803e3d6000fd5b505050506040513d60208110156113e957600080fd5b8101908080519060200190929190505050905090565b600082600260008673ffffffffffffffffffffffffffffffffffffffff1673ffffffffffffffffffffffffffffffffffffffff168152602001908152602001600020600301600082825401925050819055509392505050565b60006114626131bc565b60046000846000191660001916815260200190815260200160002060009054906101000a900460ff1615156114ff576040517f08c379a000000000000000000000000000000000000000000000000000000000815260040180806020018281038252601e8152602001807f506c656173652075736520612076616c696420636f6e7472616374204944000081525060200191505060405180910390fd5b6003600084600019166000191681526020019081526020016000206101c060405190810160405290816000820154600019166000191681526020016001820160009054906101000a900473ffffffffffffffffffffffffffffffffffffffff1673ffffffffffffffffffffffffffffffffffffffff1673ffffffffffffffffffffffffffffffffffffffff1681526020016002820160009054906101000a900473ffffffffffffffffffffffffffffffffffffffff1673ffffffffffffffffffffffffffffffffffffffff1673ffffffffffffffffffffffffffffffffffffffff1681526020016003820154815260200160048201548152602001600582015481526020016006820160009054906101000a900461ffff1661ffff1661ffff1681526020016006820160029054906101000a900461ffff1661ffff1661ffff168152602001600782015481526020016008820154815260200160098201548152602001600a820160009054906101000a900463ffffffff1663ffffffff1663ffffffff168152602001600b8201548152602001600c8201805480602002602001604051908101604052809291908181526020016000905b8282101561171b578382906000526020600020906005020160a0604051908101604052908160008201548152602001600182015481526020016002820154815260200160038201548152602001600482015481525050815260200190600101906116b6565b50505050815250509050806020015173ffffffffffffffffffffffffffffffffffffffff163373ffffffffffffffffffffffffffffffffffffffff161415611a6e57836003600085600019166000191681526020019081526020016000206008015410151515611819576040517f08c379a00000000000000000000000000000000000000000000000000000000081526004018080602001828103825260328152602001807f596f752063616e206f6e6c7920776974686472617720616e20616d6f756e742081526020017f796f752068617665206465706f7369746564000000000000000000000000000081525060400191505060405180910390fd5b600660009054906101000a900473ffffffffffffffffffffffffffffffffffffffff1673ffffffffffffffffffffffffffffffffffffffff1663a9059cbb33866040518363ffffffff167c0100000000000000000000000000000000000000000000000000000000028152600401808373ffffffffffffffffffffffffffffffffffffffff1673ffffffffffffffffffffffffffffffffffffffff16815260200182815260200192505050602060405180830381600087803b1580156118de57600080fd5b505af11580156118f2573d6000803e3d6000fd5b505050506040513d602081101561190857600080fd5b8101908080519060200190929190505050151561198d576040517f08c379a000000000000000000000000000000000000000000000000000000000815260040180806020018281038252601b8152602001807f546f6b656e207472616e73666572206d7573742073756363656564000000000081525060200191505060405180910390fd5b6119d9600260003373ffffffffffffffffffffffffffffffffffffffff1673ffffffffffffffffffffffffffffffffffffffff168152602001908152602001600020600301548561300f565b600260003373ffffffffffffffffffffffffffffffffffffffff1673ffffffffffffffffffffffffffffffffffffffff16815260200190815260200160002060030181905550611a47600360008560001916600019168152602001908152602001600020600801548561300f565b60036000856000191660001916815260200190815260200160002060080181905550611d7b565b836003600085600019166000191681526020019081526020016000206009015410151515611b2a576040517f08c379a00000000000000000000000000000000000000000000000000000000081526004018080602001828103825260328152602001807f596f752063616e206f6e6c7920776974686472617720616e20616d6f756e742081526020017f796f752068617665206465706f7369746564000000000000000000000000000081525060400191505060405180910390fd5b600660009054906101000a900473ffffffffffffffffffffffffffffffffffffffff1673ffffffffffffffffffffffffffffffffffffffff1663a9059cbb33866040518363ffffffff167c0100000000000000000000000000000000000000000000000000000000028152600401808373ffffffffffffffffffffffffffffffffffffffff1673ffffffffffffffffffffffffffffffffffffffff16815260200182815260200192505050602060405180830381600087803b158015611bef57600080fd5b505af1158015611c03573d6000803e3d6000fd5b505050506040513d6020811015611c1957600080fd5b81019080805190602001909291905050501515611c9e576040517f08c379a000000000000000000000000000000000000000000000000000000000815260040180806020018281038252601b8152602001807f546f6b656e207472616e73666572206d7573742073756363656564000000000081525060200191505060405180910390fd5b611cea600260003373ffffffffffffffffffffffffffffffffffffffff1673ffffffffffffffffffffffffffffffffffffffff168152602001908152602001600020600301548561300f565b600260003373ffffffffffffffffffffffffffffffffffffffff1673ffffffffffffffffffffffffffffffffffffffff16815260200190815260200160002060030181905550611d58600360008560001916600019168152602001908152602001600020600901548561300f565b600360008560001916600019168152602001908152602001600020600901819055505b5092915050565b6000611d8c6131bc565b60046000846000191660001916815260200190815260200160002060009054906101000a900460ff161515611e29576040517f08c379a000000000000000000000000000000000000000000000000000000000815260040180806020018281038252601e8152602001807f506c656173652075736520612076616c696420636f6e7472616374204944000081525060200191505060405180910390fd5b7fd80ebeb49a88fadb5ef8b540253fcf5b9f5ad633df71d5b79ad390afdbb1385f333086604051808473ffffffffffffffffffffffffffffffffffffffff1673ffffffffffffffffffffffffffffffffffffffff1681526020018373ffffffffffffffffffffffffffffffffffffffff1673ffffffffffffffffffffffffffffffffffffffff168152602001828152602001935050505060405180910390a1600660009054906101000a900473ffffffffffffffffffffffffffffffffffffffff1673ffffffffffffffffffffffffffffffffffffffff166323b872dd3330876040518463ffffffff167c0100000000000000000000000000000000000000000000000000000000028152600401808473ffffffffffffffffffffffffffffffffffffffff1673ffffffffffffffffffffffffffffffffffffffff1681526020018373ffffffffffffffffffffffffffffffffffffffff1673ffffffffffffffffffffffffffffffffffffffff1681526020018281526020019350505050602060405180830381600087803b158015611fc157600080fd5b505af1158015611fd5573d6000803e3d6000fd5b505050506040513d6020811015611feb57600080fd5b81019080805190602001909291905050501515612070576040517f08c379a000000000000000000000000000000000000000000000000000000000815260040180806020018281038252601b8152602001807f546f6b656e207472616e73666572206d7573742073756363656564000000000081525060200191505060405180910390fd5b6003600084600019166000191681526020019081526020016000206101c060405190810160405290816000820154600019166000191681526020016001820160009054906101000a900473ffffffffffffffffffffffffffffffffffffffff1673ffffffffffffffffffffffffffffffffffffffff1673ffffffffffffffffffffffffffffffffffffffff1681526020016002820160009054906101000a900473ffffffffffffffffffffffffffffffffffffffff1673ffffffffffffffffffffffffffffffffffffffff1673ffffffffffffffffffffffffffffffffffffffff1681526020016003820154815260200160048201548152602001600582015481526020016006820160009054906101000a900461ffff1661ffff1661ffff1681526020016006820160029054906101000a900461ffff1661ffff1661ffff168152602001600782015481526020016008820154815260200160098201548152602001600a820160009054906101000a900463ffffffff1663ffffffff1663ffffffff168152602001600b8201548152602001600c8201805480602002602001604051908101604052809291908181526020016000905b8282101561228c578382906000526020600020906005020160a060405190810160405290816000820154815260200160018201548152602001600282015481526020016003820154815260200160048201548152505081526020019060010190612227565b50505050815250509050806020015173ffffffffffffffffffffffffffffffffffffffff163373ffffffffffffffffffffffffffffffffffffffff16141561231d576122f66003600085600019166000191681526020019081526020016000206008015485613028565b60036000856000191660001916815260200190815260200160002060080181905550612368565b6123456003600085600019166000191681526020019081526020016000206009015485613028565b600360008560001916600019168152602001908152602001600020600901819055505b6123b4600260003373ffffffffffffffffffffffffffffffffffffffff1673ffffffffffffffffffffffffffffffffffffffff1681526020019081526020016000206003015485613028565b600260003373ffffffffffffffffffffffffffffffffffffffff1673ffffffffffffffffffffffffffffffffffffffff168152602001908152602001600020600301819055507f98e783c3864bbf744a057ef605a2a61701c3b62b5ed68b3745b99094497daf1f83856040518083600019166000191681526020018281526020019250505060405180910390a1600191505092915050565b6000806000600260008573ffffffffffffffffffffffffffffffffffffffff1673ffffffffffffffffffffffffffffffffffffffff1681526020019081526020016000209050806002015481600301549250925050915091565b6000806000806000806124b761318c565b60006124c161118f565b96506005546040518082815260200191505060405180910390209550620151808c0242019450603c8d02420193506124f98988613044565b925060a060405190810160405280428152602001888152602001600081526020016000815260200160008152509150856003600088600019166000191681526020019081526020016000206000018160001916905550600060036000886000191660001916815260200190815260200160002060010160006101000a81548173ffffffffffffffffffffffffffffffffffffffff021916908373ffffffffffffffffffffffffffffffffffffffff1602179055503360036000886000191660001916815260200190815260200160002060020160006101000a81548173ffffffffffffffffffffffffffffffffffffffff021916908373ffffffffffffffffffffffffffffffffffffffff1602179055508660036000886000191660001916815260200190815260200160002060030181905550846003600088600019166000191681526020019081526020016000206004018190555042600360008860001916600019168152602001908152602001600020600501819055508a60036000886000191660001916815260200190815260200160002060060160006101000a81548161ffff021916908361ffff1602179055508960036000886000191660001916815260200190815260200160002060060160026101000a81548161ffff021916908361ffff16021790555060006003600088600019166000191681526020019081526020016000206008018190555060006003600088600019166000191681526020019081526020016000206009018190555082600360008860001916600019168152602001908152602001600020600701819055506001600360008860001916600019168152602001908152602001600020600a0160006101000a81548163ffffffff021916908363ffffffff16021790555083600360008860001916600019168152602001908152602001600020600b0181905550600360008760001916600019168152602001908152602001600020600c0182908060018154018082558091505090600182039060005260206000209060050201600090919290919091506000820151816000015560208201518160010155604082015181600201556060820151816003015560808201518160040155505050600160046000886000191660001916815260200190815260200160002060006101000a81548160ff021916908315150217905550600560008154809291906001019190505550600260003373ffffffffffffffffffffffffffffffffffffffff1673ffffffffffffffffffffffffffffffffffffffff168152602001908152602001600020600101869080600181540180825580915050906001820390600052602060002001600090919290919091509060001916905550600260003373ffffffffffffffffffffffffffffffffffffffff1673ffffffffffffffffffffffffffffffffffffffff1681526020019081526020016000206002016000815480929190600101919050555061296b61296061295761294d8c8b613044565b8d61ffff16613044565b620186a061307c565b6402540be400613044565b90506129778187611d82565b507f60ea16e611deaec22d992e02267746362828fca13882a5d0dd11878eaa1812308660405180826000191660001916815260200191505060405180910390a18597505050505050505095945050505050565b6000809054906101000a900473ffffffffffffffffffffffffffffffffffffffff1673ffffffffffffffffffffffffffffffffffffffff163373ffffffffffffffffffffffffffffffffffffffff16141515612a2557600080fd5b612a2e81613092565b50565b600080612a3c6131bc565b612a4461318c565b6000806000806000612a5461318c565b6000612a5e61118f565b9950600360008d600019166000191681526020019081526020016000206101c060405190810160405290816000820154600019166000191681526020016001820160009054906101000a900473ffffffffffffffffffffffffffffffffffffffff1673ffffffffffffffffffffffffffffffffffffffff1673ffffffffffffffffffffffffffffffffffffffff1681526020016002820160009054906101000a900473ffffffffffffffffffffffffffffffffffffffff1673ffffffffffffffffffffffffffffffffffffffff1673ffffffffffffffffffffffffffffffffffffffff1681526020016003820154815260200160048201548152602001600582015481526020016006820160009054906101000a900461ffff1661ffff1661ffff1681526020016006820160029054906101000a900461ffff1661ffff1661ffff168152602001600782015481526020016008820154815260200160098201548152602001600a820160009054906101000a900463ffffffff1663ffffffff1663ffffffff168152602001600b8201548152602001600c8201805480602002602001604051908101604052809291908181526020016000905b82821015612c7c578382906000526020600020906005020160a060405190810160405290816000820154815260200160018201548152602001600282015481526020016003820154815260200160048201548152505081526020019060010190612c17565b50505050815250509850600360008d60001916600019168152602001908152602001600020600c016001600360008f60001916600019168152602001908152602001600020600a0160009054906101000a900463ffffffff160363ffffffff16815481101515612ce857fe5b906000526020600020906005020160a0604051908101604052908160008201548152602001600182015481526020016002820154815260200160038201548152602001600482015481525050975087602001518a0396507f73a90aec9019337cd7696c0b2ca3ce431ea2fe8526cbfbdf27ac2f66e868079c876040518082815260200191505060405180910390a1612d7f876108d4565b9550612daa612da3612d95618e9461016d61307c565b8b60c0015161ffff16613044565b600161307c565b94507f3298b473c897701863a72ac6e7b3520d45529fdea2174f3294fe9d1016a8240f8587604051808381526020018281526020019250505060405180910390a1612e03612df8878761300f565b8a6101000151613044565b9350612e13846305f5e10061307c565b925060a0604051908101604052804281526020018b81526020018960400151815260200189606001518152602001848152509150600360008d60001916600019168152602001908152602001600020600c0182908060018154018082558091505090600182039060005260206000209060050201600090919290919091506000820151816000015560208201518160010155604082015181600201556060820151816003015560808201518160040155505050600360008d60001916600019168152602001908152602001600020600a01600081819054906101000a900463ffffffff168092919060010191906101000a81548163ffffffff021916908363ffffffff160217905550507fec33bc48af09208757bd088a445eacce3755e505c2ac739e05e6d0085ec087888c60405180826000191660001916815260200191505060405180910390a1612f8a612f7f612f77612f71876103e8613044565b8d61307c565b6103e861307c565b6402540be400613044565b90507f12c5aba7cebed6f3965f3f1ea88b8b52d852c9f90c49cb13e9edebcc88453cea816040518082815260200191505060405180910390a16000871315612fe857808961014001511015612fe357612fe28c61082f565b5b613000565b808961012001511015612fff57612ffe8c61082f565b5b5b50505050505050505050919050565b600082821115151561301d57fe5b818303905092915050565b6000818301905082811015151561303b57fe5b80905092915050565b6000808314156130575760009050613076565b818302905081838281151561306857fe5b0414151561307257fe5b8090505b92915050565b6000818381151561308957fe5b04905092915050565b600073ffffffffffffffffffffffffffffffffffffffff168173ffffffffffffffffffffffffffffffffffffffff16141515156130ce57600080fd5b8073ffffffffffffffffffffffffffffffffffffffff166000809054906101000a900473ffffffffffffffffffffffffffffffffffffffff1673ffffffffffffffffffffffffffffffffffffffff167f8be0079c531659141344cd1fd0a4f28419497f9722a3daafe3b4186f6b6457e060405160405180910390a3806000806101000a81548173ffffffffffffffffffffffffffffffffffffffff021916908373ffffffffffffffffffffffffffffffffffffffff16021790555050565b60a06040519081016040528060008152602001600081526020016000815260200160008152602001600081525090565b6101c06040519081016040528060008019168152602001600073ffffffffffffffffffffffffffffffffffffffff168152602001600073ffffffffffffffffffffffffffffffffffffffff168152602001600081526020016000815260200160008152602001600061ffff168152602001600061ffff168152602001600081526020016000815260200160008152602001600063ffffffff168152602001600081526020016060815250905600a165627a7a7230582098ec7776aa443f89103bb564c7eb97f103b3a484ecf6c882ff7872f240678a8b0029",
  "source": "pragma solidity 0.4.24;\n\nimport \"chainlink/contracts/interfaces/AggregatorInterface.sol\";\nimport \"openzeppelin-solidity/contracts/ownership/Ownable.sol\";\nimport \"openzeppelin-solidity/contracts/Math/SafeMath.sol\";\n\n/**\n * @dev Interface of the ERC20 standard as defined in the EIP. Does not include\n * the optional functions; to access them see {ERC20Detailed}.\n */\ninterface IERC20 {\n    function totalSupply() external view returns (uint256);\n    function balanceOf(address account) external view returns (uint256);\n    function transfer(address recipient, uint256 amount) external returns (bool);\n    function allowance(address owner, address spender) external view returns (uint256);\n    function approve(address spender, uint256 amount) external returns (bool);\n    function transferFrom(address sender, address recipient, uint256 amount) external returns (bool);\n    event Transfer(address indexed from, address indexed to, uint256 value);\n    event Approval(address indexed owner, address indexed spender, uint256 value);\n}\n\ncontract LinkTRS is Ownable {\n    \n    //Struct for a user account\n    struct account {\n        address owner;\n        bytes32[] contracts;\n        uint256 numContracts;\n        uint256 deposited; //total cDAI deposited\n    }\n\n    struct npvCalcs {\n        uint256 date;\n        uint256 price;\n        uint256 takersMargin;\n        uint256 makersMargin;\n        uint256 npv; //change in npv\n    }\n\n    //Struct for a contract\n    struct trsContract {\n        bytes32 id;\n        address takerAddress;\n        address makerAddress;\n        uint256 originalPrice;\n        uint256 expiryDate;\n        uint256 startDate;\n        uint16 interest;\n        uint16 requiredMargin;\n        uint256 originalValue;\n        uint256 takersMargin;\n        uint256 makersMargin;\n        uint32 numNPV;\n        uint256 offerExpiryDate;\n        npvCalcs[] npvs;\n    }\n\n    event ContractCreated(bytes32 contractID);\n    event Liquidate(bytes32 _contractID);\n    event Deposit(bytes32 _contractID, uint amount);\n    event npvUpdated(bytes32 contractID);\n    event priceChangeEvent(int priceChange);\n    event AttemptTransfer(address from, address to, uint value);\n    event TestEmit(uint interest, uint priceDiff);\n    event amountToPay(uint tokens);\n\n    AggregatorInterface internal reference;\n    mapping(address => account) users;\n    mapping (bytes32 => trsContract) contracts;\n    mapping (bytes32 => bool) validContracts;\n    uint256 public contractCounter;\n    IERC20 token;\n\n    constructor(address tokenAddress, address _aggregator) public {\n        reference = AggregatorInterface(_aggregator);\n        token = IERC20(tokenAddress);\n    }\n\n    /**\n    * Gets the latest price from the reference data contract\n    */\n    function getLatestPrice() public view returns (uint256) {\n        return abs(reference.currentAnswer());\n    }\n\n    /**\n    * Gets the last updated block height from the reference data contract\n    */\n    function getLatestUpdateHeight() public view returns (uint256) {\n        return reference.updatedHeight();\n    }\n\n    /**\n    * Allows users to deposit LINK to the contract\n    */\n    function onTokenTransfer(address from, uint256 amount, bytes data) public returns (bool success) {\n        users[from].deposited += amount;\n    }\n\n    function createContract(uint256 timeToLive, uint256 length, uint16 interest, uint16 requiredMargin, uint256 amountOfLink) public returns (bytes32) {        \n        //Pull required info\n        uint256 price = getLatestPrice(); //price (x 10^9)\n        //uint256 scaledPrice = SafeMath.div(price, 1000000); //this converts it to price ($ x 1000) eg $1.24 = 1240\n        bytes32 contractID = keccak256(contractCounter);\n        uint256 expiryDate = now + length * 1 days;\n        uint256 offerExpiryDate = now + timeToLive * 1 minutes;\n        //uint256 value = SafeMath.mul(amountOfLink, scaledPrice);\n        uint256 value = SafeMath.mul(amountOfLink, price);\n        //Create initial npv entry\n        npvCalcs memory npvEntry = npvCalcs(now, price, 0, 0, 0);\n\n        //Create contract\n        contracts[contractID].id = contractID;\n        contracts[contractID].takerAddress = address(0);\n        contracts[contractID].makerAddress = msg.sender;\n        contracts[contractID].originalPrice = price;\n        contracts[contractID].expiryDate = expiryDate;\n        contracts[contractID].startDate = now;\n        contracts[contractID].interest = interest;\n        contracts[contractID].requiredMargin = requiredMargin;\n        contracts[contractID].takersMargin = 0;\n        contracts[contractID].makersMargin = 0;\n        contracts[contractID].originalValue = value;\n        contracts[contractID].numNPV = 1;\n        contracts[contractID].offerExpiryDate = offerExpiryDate;\n        contracts[contractID].npvs.push(npvEntry);\n        validContracts[contractID] = true;\n        contractCounter++;\n\n        //Update user info\n        users[msg.sender].contracts.push(contractID);\n        users[msg.sender].numContracts++;\n\n        //Deposit into makers margin account. Mul by 10000000000 to convert to tokens amount (10^18)\n        uint tokensToDeposit = SafeMath.mul(SafeMath.div(SafeMath.mul(SafeMath.mul(amountOfLink, price), requiredMargin), 100000), 10000000000);\n        deposit(tokensToDeposit, contractID);\n\n        emit ContractCreated(contractID);\n        return contractID;\n    }\n\n    function joinContract(bytes32 _contractID, uint256 tokensToDeposit) public returns(bool) {\n        require(validContracts[_contractID], \"Please use a valid contract ID\");\n        require(now <= contracts[_contractID].offerExpiryDate, \"You can only accept a currently valid offer\");\n        //Require the user to transfer the required margin\n        require(token.allowance(msg.sender, address(this)) >= tokensToDeposit, \"You have not provided access to enough tokens\");\n        //Deposit into makers margin account. Mul by 10000000000 to convert to tokens amount (10^18)\n        contracts[_contractID].takerAddress = msg.sender;\n        deposit(tokensToDeposit, _contractID);\n        return true;\n    }\n\n    function getUserContract(uint i) public view returns(bytes32) {\n        return users[msg.sender].contracts[i];\n    }\n\n    function getContractByIndex(uint index) public view returns (address, address, uint256, uint256, uint256, \n    uint16, uint256, uint256, uint256) {\n        return getContractInfo(keccak256(index));\n    }\n\n    function getContractInfo(bytes32 _contractID) public view returns (address, address, uint256, uint256, uint256, \n    uint16, uint256, uint256, uint256) {\n        require(validContracts[_contractID], \"Please use a valid contract ID\");\n        trsContract memory _contract = contracts[_contractID];\n        return (_contract.takerAddress, _contract.makerAddress, _contract.originalPrice, _contract.startDate,\n             _contract.expiryDate, _contract.interest, _contract.originalValue, _contract.takersMargin, _contract.makersMargin);\n    }\n\n    function getContractNPV(bytes32 _contractID, uint i) public view returns (uint256, uint256, uint256, uint256, uint256) {\n        npvCalcs memory thisNPV = contracts[_contractID].npvs[i];\n        return (thisNPV.date, thisNPV.price, thisNPV.takersMargin, thisNPV.makersMargin, thisNPV.npv);\n    }\n\n    /**\n    * Function for calculating the NPV at a given point in time for a specific contract.\n    * @dev requires the starting state for the NVP array to be intilized (when contract is created)\n    */\n    function calcNPV(bytes32 _contractId) internal returns (bool) {\n        //Calc npv\n        uint256 price = getLatestPrice(); //price * 10^9\n        //uint256 scaledPrice = SafeMath.div(price, 1000000); //this converts it to price ($ x 1000) eg $1.24 = 1240\n\n        trsContract memory _contract = contracts[_contractId];\n\n        npvCalcs memory lastNPV = contracts[_contractId].npvs[contracts[_contractId].numNPV - 1];\n        int256 priceChange = (int256)(price - lastNPV.price);\n        emit priceChangeEvent(priceChange);\n        uint256 absPriceChange = abs(priceChange);\n        //uint256 timeChange = SafeMath.div(SafeMath.sub(now + 31536000, lastNPV.date), 86400); //for testing pretend a year has past\n        //Interest is represented as percent x 1000 (i.e 5.5% = 5500)\n        uint256 interestPercent = SafeMath.div(SafeMath.mul(SafeMath.div(36500, 365), _contract.interest), 1);\n\n        //At this point, price diff is (price diff) * 10^7 and interest is % * 10^2. Want percent as a decimal * 10^7 (i.e % in 10^)\n        //eg (5.5% should be 0.05500 * 10^7 = 5500 * 10^2)\n        emit TestEmit(interestPercent, absPriceChange);\n        uint256 npv = SafeMath.mul(SafeMath.sub(absPriceChange,interestPercent),\n            _contract.originalValue);\n        //this is to account for the fact that the price is increased this much before being written on chain\n        uint256 scaledNpv = SafeMath.div(npv, 100000000); //remove excess from interest being x1000\n        \n        // //TODO incoperate margin changes here\n        npvCalcs memory thisCalc = npvCalcs(now, price, lastNPV.takersMargin, lastNPV.makersMargin, scaledNpv);\n        contracts[_contractId].npvs.push(thisCalc);\n        contracts[_contractId].numNPV++;\n\n        emit npvUpdated(_contractId);\n\n        //TODO Calc amount of tokens to transfer\n        //npv is excess to pay in $x.xx * 10^8.\n        uint amountOfTokens = SafeMath.mul(SafeMath.div(SafeMath.div(SafeMath.mul(npv,1000),price), 1000), 10000000000);\n        //Now to convert to tokens (which are in 10^18), we need to multiply by 10^11 (since we are currently working in 10^9)\n        emit amountToPay(amountOfTokens);\n\n        if(priceChange > 0) {\n            //Price has gone up, transfer from maker margin to taker margin\n            if (_contract.makersMargin < amountOfTokens) {\n                liquidate(_contractId);\n            }\n        } else {\n            //Price has gone down, transfer from taker margin to maker margin\n            if (_contract.takersMargin < amountOfTokens) {\n                liquidate(_contractId);\n            }\n           //return npvCalcs(now, price, lastNPV.takersMargin, lastNPV.makersMargin, npv);\n        }\n    }\n\n    /**\n    * Function for recalculating contract terms and the margin accounts for a set contract\n    */\n    function remargin(bytes32 _contractId) public returns(bool) {\n        require(validContracts[_contractId], \"You can only remargin a valid contract\");\n        calcNPV(_contractId);\n        return true;\n    }\n\n    /**\n    * Function for liquidating a contract\n    */\n    function liquidate(bytes32 _contractId) public {\n        emit Liquidate(_contractId);\n        return;\n    }\n\n    function abs(int256 num) public returns (uint256) {\n        if (num < 0) {\n            return (uint256)(-num);\n        } else {\n            return (uint256)(num);\n        }\n    }\n\n    /**\n    * Allows a user to deposit tokens onto the platform\n    */\n    function deposit(uint value, bytes32 _contractID) public returns (bool) {\n        require(validContracts[_contractID], \"Please use a valid contract ID\");\n        emit AttemptTransfer(msg.sender, address(this), value);\n        require(token.transferFrom(msg.sender, address(this), value), \"Token transfer must succeed\");\n        trsContract memory _contract = contracts[_contractID];\n        if (msg.sender == _contract.takerAddress) {\n            contracts[_contractID].takersMargin = SafeMath.add(contracts[_contractID].takersMargin, value);\n        } else {\n            contracts[_contractID].makersMargin = SafeMath.add(contracts[_contractID].makersMargin, value);\n        }\n        users[msg.sender].deposited = SafeMath.add(users[msg.sender].deposited, value);\n        emit Deposit(_contractID, value);\n        return true;\n    }\n\n    function withdraw(uint value, bytes32 _contractID) public returns(bool) {\n        require(validContracts[_contractID], \"Please use a valid contract ID\");\n        trsContract memory _contract = contracts[_contractID];\n        if (msg.sender == _contract.takerAddress) {\n            require(contracts[_contractID].takersMargin >= value, \"You can only withdraw an amount you have deposited\");\n            //TODO two party vote to withdraw\n            require(token.transfer(msg.sender, value), \"Token transfer must succeed\");\n            //Decrement amount\n            users[msg.sender].deposited = SafeMath.sub(users[msg.sender].deposited, value);\n            contracts[_contractID].takersMargin = SafeMath.sub(contracts[_contractID].takersMargin, value);\n        } else {\n            require(contracts[_contractID].makersMargin >= value, \"You can only withdraw an amount you have deposited\");\n            //TODO two party vote to withdraw\n            require(token.transfer(msg.sender, value), \"Token transfer must succeed\");\n            //Decrement amount\n            users[msg.sender].deposited = SafeMath.sub(users[msg.sender].deposited, value);\n            contracts[_contractID].makersMargin = SafeMath.sub(contracts[_contractID].makersMargin, value);\n        }\n    }\n\n    function getUserDetails(address _user) public returns(uint256, uint256) {\n        account user = users[_user];\n        return (user.numContracts, user.deposited);\n    }\n\n}",
  "sourcePath": "/Users/raymogg/dev/SDL/LinkTRS/contracts/LinkTRS.sol",
  "compiler": {
    "name": "solc",
    "version": "0.4.24+commit.e67f0147.Emscripten.clang"
  },
  "schemaVersion": "3.0.2",
  "updatedAt": "2019-10-29T02:16:58.458Z",
  "devdoc": {
    "methods": {
      "renounceOwnership()": {
        "details": "Allows the current owner to relinquish control of the contract."
      },
      "transferOwnership(address)": {
        "details": "Allows the current owner to transfer control of the contract to a newOwner.",
        "params": {
          "_newOwner": "The address to transfer ownership to."
        }
      }
    }
  },
  "userdoc": {
    "methods": {
      "deposit(uint256,bytes32)": {
        "notice": "Allows a user to deposit tokens onto the platform"
      },
      "getLatestPrice()": {
        "notice": "Gets the latest price from the reference data contract"
      },
      "getLatestUpdateHeight()": {
        "notice": "Gets the last updated block height from the reference data contract"
      },
      "liquidate(bytes32)": {
        "notice": "Function for liquidating a contract"
      },
      "onTokenTransfer(address,uint256,bytes)": {
        "notice": "Allows users to deposit LINK to the contract"
      },
      "remargin(bytes32)": {
        "notice": "Function for recalculating contract terms and the margin accounts for a set contract"
      },
      "renounceOwnership()": {
        "notice": "Renouncing to ownership will leave the contract without an owner. It will not be possible to call the functions with the `onlyOwner` modifier anymore."
      }
    }
  }
}